{
	"contracts/DisposableIdentityVault.sol": {
		"DisposableIdentityVault": {
			"abi": [
				{
					"inputs": [],
					"stateMutability": "nonpayable",
					"type": "constructor"
				},
				{
					"anonymous": false,
					"inputs": [
						{
							"indexed": true,
							"internalType": "uint256",
							"name": "code",
							"type": "uint256"
						},
						{
							"indexed": true,
							"internalType": "address",
							"name": "business",
							"type": "address"
						},
						{
							"indexed": false,
							"internalType": "uint256",
							"name": "feePaid",
							"type": "uint256"
						}
					],
					"name": "AccessLogged",
					"type": "event"
				},
				{
					"anonymous": false,
					"inputs": [
						{
							"indexed": true,
							"internalType": "address",
							"name": "owner",
							"type": "address"
						},
						{
							"indexed": false,
							"internalType": "uint256",
							"name": "amount",
							"type": "uint256"
						}
					],
					"name": "FeeWithdrawn",
					"type": "event"
				},
				{
					"anonymous": false,
					"inputs": [
						{
							"indexed": true,
							"internalType": "uint256",
							"name": "code",
							"type": "uint256"
						}
					],
					"name": "TokenGenerated",
					"type": "event"
				},
				{
					"inputs": [],
					"name": "accessFee",
					"outputs": [
						{
							"internalType": "uint256",
							"name": "",
							"type": "uint256"
						}
					],
					"stateMutability": "view",
					"type": "function"
				},
				{
					"inputs": [
						{
							"internalType": "uint256",
							"name": "_code",
							"type": "uint256"
						}
					],
					"name": "businessRecall",
					"outputs": [
						{
							"internalType": "bytes",
							"name": "",
							"type": "bytes"
						}
					],
					"stateMutability": "payable",
					"type": "function"
				},
				{
					"inputs": [
						{
							"internalType": "uint256",
							"name": "_code",
							"type": "uint256"
						}
					],
					"name": "checkTokenStatus",
					"outputs": [
						{
							"internalType": "bool",
							"name": "",
							"type": "bool"
						}
					],
					"stateMutability": "view",
					"type": "function"
				},
				{
					"inputs": [
						{
							"internalType": "bytes",
							"name": "_encryptedSecret",
							"type": "bytes"
						},
						{
							"internalType": "uint256",
							"name": "_count",
							"type": "uint256"
						}
					],
					"name": "generateAndStore",
					"outputs": [],
					"stateMutability": "nonpayable",
					"type": "function"
				},
				{
					"inputs": [
						{
							"internalType": "uint256",
							"name": "",
							"type": "uint256"
						}
					],
					"name": "isCodeActive",
					"outputs": [
						{
							"internalType": "bool",
							"name": "",
							"type": "bool"
						}
					],
					"stateMutability": "view",
					"type": "function"
				},
				{
					"inputs": [],
					"name": "owner",
					"outputs": [
						{
							"internalType": "address payable",
							"name": "",
							"type": "address"
						}
					],
					"stateMutability": "view",
					"type": "function"
				},
				{
					"inputs": [
						{
							"internalType": "uint256",
							"name": "_newFeeInWei",
							"type": "uint256"
						}
					],
					"name": "setAccessFee",
					"outputs": [],
					"stateMutability": "nonpayable",
					"type": "function"
				},
				{
					"stateMutability": "payable",
					"type": "receive"
				}
			],
			"devdoc": {
				"details": "Secure storage for encrypted PII (SSN/IDs) using disposable pseudo-codes. This version includes a pay-to-access model and \"Burn-on-Read\" functionality.",
				"kind": "dev",
				"methods": {
					"businessRecall(uint256)": {
						"details": "Step 3: Business pays to access data. Logic: Release data -> Burn Token -> Collect Fee."
					},
					"checkTokenStatus(uint256)": {
						"details": "Step 2: Public verification.  Businesses can check if a QR code/token is still valid before paying."
					},
					"generateAndStore(bytes,uint256)": {
						"details": "Step 1: User/Admin stores the encrypted data. Takes an encrypted 'blob' and a desired number of disposable codes."
					},
					"setAccessFee(uint256)": {
						"details": "Step 4: Monetization. Owner can change the access fee based on market value."
					}
				},
				"title": "DisposableIdentityVault",
				"version": 1
			},
			"evm": {
				"assembly": "    /* \"contracts/DisposableIdentityVault.sol\":431:3603  contract DisposableIdentityVault {... */\n  mstore(0x40, 0x80)\n    /* \"contracts/DisposableIdentityVault.sol\":533:543  0.01 ether */\n  0x2386f26fc10000\n    /* \"contracts/DisposableIdentityVault.sol\":506:543  uint256 public accessFee = 0.01 ether */\n  0x01\n  sstore\n    /* \"contracts/DisposableIdentityVault.sol\":1015:1075  constructor() {... */\n  callvalue\n  dup1\n  iszero\n  tag_1\n  jumpi\n  revert(0x00, 0x00)\ntag_1:\n  pop\n    /* \"contracts/DisposableIdentityVault.sol\":1056:1066  msg.sender */\n  caller\n    /* \"contracts/DisposableIdentityVault.sol\":1040:1045  owner */\n  0x00\n  0x00\n    /* \"contracts/DisposableIdentityVault.sol\":1040:1067  owner = payable(msg.sender) */\n  0x0100\n  exp\n  dup2\n  sload\n  dup2\n  0xffffffffffffffffffffffffffffffffffffffff\n  mul\n  not\n  and\n  swap1\n  dup4\n  0xffffffffffffffffffffffffffffffffffffffff\n  and\n  mul\n  or\n  swap1\n  sstore\n  pop\n    /* \"contracts/DisposableIdentityVault.sol\":431:3603  contract DisposableIdentityVault {... */\n  dataSize(sub_0)\n  dup1\n  dataOffset(sub_0)\n  0x00\n  codecopy\n  0x00\n  return\nstop\n\nsub_0: assembly {\n        /* \"contracts/DisposableIdentityVault.sol\":431:3603  contract DisposableIdentityVault {... */\n      mstore(0x40, 0x80)\n      jumpi(tag_1, lt(calldatasize, 0x04))\n      shr(0xe0, calldataload(0x00))\n      dup1\n      0x5efee8f4\n      gt\n      tag_10\n      jumpi\n      dup1\n      0x5efee8f4\n      eq\n      tag_6\n      jumpi\n      dup1\n      0x8da5cb5b\n      eq\n      tag_7\n      jumpi\n      dup1\n      0x987c389b\n      eq\n      tag_8\n      jumpi\n      dup1\n      0xaa0fcc75\n      eq\n      tag_9\n      jumpi\n      jump(tag_2)\n    tag_10:\n      dup1\n      0x24a5f15a\n      eq\n      tag_3\n      jumpi\n      dup1\n      0x2b5b25bb\n      eq\n      tag_4\n      jumpi\n      dup1\n      0x492b85cd\n      eq\n      tag_5\n      jumpi\n      jump(tag_2)\n    tag_1:\n      jumpi(tag_2, calldatasize)\n      stop\n    tag_2:\n      revert(0x00, 0x00)\n        /* \"contracts/DisposableIdentityVault.sol\":3056:3160  function setAccessFee(uint256 _newFeeInWei) public onlyOwner {... */\n    tag_3:\n      callvalue\n      dup1\n      iszero\n      tag_13\n      jumpi\n      revert(0x00, 0x00)\n    tag_13:\n      pop\n      tag_14\n      0x04\n      dup1\n      calldatasize\n      sub\n      dup2\n      add\n      swap1\n      tag_15\n      swap2\n      swap1\n      tag_16\n      jump\t// in\n    tag_15:\n      tag_17\n      jump\t// in\n    tag_14:\n      stop\n        /* \"contracts/DisposableIdentityVault.sol\":2428:2932  function businessRecall(uint256 _code) public payable returns (bytes memory) {... */\n    tag_4:\n      tag_18\n      0x04\n      dup1\n      calldatasize\n      sub\n      dup2\n      add\n      swap1\n      tag_19\n      swap2\n      swap1\n      tag_16\n      jump\t// in\n    tag_19:\n      tag_20\n      jump\t// in\n    tag_18:\n      mload(0x40)\n      tag_21\n      swap2\n      swap1\n      tag_22\n      jump\t// in\n    tag_21:\n      mload(0x40)\n      dup1\n      swap2\n      sub\n      swap1\n      return\n        /* \"contracts/DisposableIdentityVault.sol\":506:543  uint256 public accessFee = 0.01 ether */\n    tag_5:\n      callvalue\n      dup1\n      iszero\n      tag_23\n      jumpi\n      revert(0x00, 0x00)\n    tag_23:\n      pop\n      tag_24\n      tag_25\n      jump\t// in\n    tag_24:\n      mload(0x40)\n      tag_26\n      swap2\n      swap1\n      tag_27\n      jump\t// in\n    tag_26:\n      mload(0x40)\n      dup1\n      swap2\n      sub\n      swap1\n      return\n        /* \"contracts/DisposableIdentityVault.sol\":720:764  mapping(uint256 => bool) public isCodeActive */\n    tag_6:\n      callvalue\n      dup1\n      iszero\n      tag_28\n      jumpi\n      revert(0x00, 0x00)\n    tag_28:\n      pop\n      tag_29\n      0x04\n      dup1\n      calldatasize\n      sub\n      dup2\n      add\n      swap1\n      tag_30\n      swap2\n      swap1\n      tag_16\n      jump\t// in\n    tag_30:\n      tag_31\n      jump\t// in\n    tag_29:\n      mload(0x40)\n      tag_32\n      swap2\n      swap1\n      tag_33\n      jump\t// in\n    tag_32:\n      mload(0x40)\n      dup1\n      swap2\n      sub\n      swap1\n      return\n        /* \"contracts/DisposableIdentityVault.sol\":471:499  address payable public owner */\n    tag_7:\n      callvalue\n      dup1\n      iszero\n      tag_34\n      jumpi\n      revert(0x00, 0x00)\n    tag_34:\n      pop\n      tag_35\n      tag_36\n      jump\t// in\n    tag_35:\n      mload(0x40)\n      tag_37\n      swap2\n      swap1\n      tag_38\n      jump\t// in\n    tag_37:\n      mload(0x40)\n      dup1\n      swap2\n      sub\n      swap1\n      return\n        /* \"contracts/DisposableIdentityVault.sol\":2180:2293  function checkTokenStatus(uint256 _code) public view returns (bool) {... */\n    tag_8:\n      callvalue\n      dup1\n      iszero\n      tag_39\n      jumpi\n      revert(0x00, 0x00)\n    tag_39:\n      pop\n      tag_40\n      0x04\n      dup1\n      calldatasize\n      sub\n      dup2\n      add\n      swap1\n      tag_41\n      swap2\n      swap1\n      tag_16\n      jump\t// in\n    tag_41:\n      tag_42\n      jump\t// in\n    tag_40:\n      mload(0x40)\n      tag_43\n      swap2\n      swap1\n      tag_33\n      jump\t// in\n    tag_43:\n      mload(0x40)\n      dup1\n      swap2\n      sub\n      swap1\n      return\n        /* \"contracts/DisposableIdentityVault.sol\":1352:2033  function generateAndStore(bytes memory _encryptedSecret, uint256 _count) public onlyOwner {... */\n    tag_9:\n      callvalue\n      dup1\n      iszero\n      tag_44\n      jumpi\n      revert(0x00, 0x00)\n    tag_44:\n      pop\n      tag_45\n      0x04\n      dup1\n      calldatasize\n      sub\n      dup2\n      add\n      swap1\n      tag_46\n      swap2\n      swap1\n      tag_47\n      jump\t// in\n    tag_46:\n      tag_48\n      jump\t// in\n    tag_45:\n      stop\n        /* \"contracts/DisposableIdentityVault.sol\":3056:3160  function setAccessFee(uint256 _newFeeInWei) public onlyOwner {... */\n    tag_17:\n        /* \"contracts/DisposableIdentityVault.sol\":1137:1142  owner */\n      0x00\n      0x00\n      swap1\n      sload\n      swap1\n      0x0100\n      exp\n      swap1\n      div\n      0xffffffffffffffffffffffffffffffffffffffff\n      and\n        /* \"contracts/DisposableIdentityVault.sol\":1123:1142  msg.sender == owner */\n      0xffffffffffffffffffffffffffffffffffffffff\n      and\n        /* \"contracts/DisposableIdentityVault.sol\":1123:1133  msg.sender */\n      caller\n        /* \"contracts/DisposableIdentityVault.sol\":1123:1142  msg.sender == owner */\n      0xffffffffffffffffffffffffffffffffffffffff\n      and\n      eq\n        /* \"contracts/DisposableIdentityVault.sol\":1115:1171  require(msg.sender == owner, \"Unauthorized: Admin only\") */\n      tag_50\n      jumpi\n      mload(0x40)\n      0x08c379a000000000000000000000000000000000000000000000000000000000\n      dup2\n      mstore\n      0x04\n      add\n      tag_51\n      swap1\n      tag_52\n      jump\t// in\n    tag_51:\n      mload(0x40)\n      dup1\n      swap2\n      sub\n      swap1\n      revert\n    tag_50:\n        /* \"contracts/DisposableIdentityVault.sol\":3140:3152  _newFeeInWei */\n      dup1\n        /* \"contracts/DisposableIdentityVault.sol\":3128:3137  accessFee */\n      0x01\n        /* \"contracts/DisposableIdentityVault.sol\":3128:3152  accessFee = _newFeeInWei */\n      dup2\n      swap1\n      sstore\n      pop\n        /* \"contracts/DisposableIdentityVault.sol\":3056:3160  function setAccessFee(uint256 _newFeeInWei) public onlyOwner {... */\n      pop\n      jump\t// out\n        /* \"contracts/DisposableIdentityVault.sol\":2428:2932  function businessRecall(uint256 _code) public payable returns (bytes memory) {... */\n    tag_20:\n        /* \"contracts/DisposableIdentityVault.sol\":2491:2503  bytes memory */\n      0x60\n        /* \"contracts/DisposableIdentityVault.sol\":2537:2546  accessFee */\n      sload(0x01)\n        /* \"contracts/DisposableIdentityVault.sol\":2524:2533  msg.value */\n      callvalue\n        /* \"contracts/DisposableIdentityVault.sol\":2524:2546  msg.value >= accessFee */\n      lt\n      iszero\n        /* \"contracts/DisposableIdentityVault.sol\":2516:2577  require(msg.value >= accessFee, \"Payment too low for access\") */\n      tag_55\n      jumpi\n      mload(0x40)\n      0x08c379a000000000000000000000000000000000000000000000000000000000\n      dup2\n      mstore\n      0x04\n      add\n      tag_56\n      swap1\n      tag_57\n      jump\t// in\n    tag_56:\n      mload(0x40)\n      dup1\n      swap2\n      sub\n      swap1\n      revert\n    tag_55:\n        /* \"contracts/DisposableIdentityVault.sol\":2596:2608  isCodeActive */\n      0x03\n        /* \"contracts/DisposableIdentityVault.sol\":2596:2615  isCodeActive[_code] */\n      0x00\n        /* \"contracts/DisposableIdentityVault.sol\":2609:2614  _code */\n      dup4\n        /* \"contracts/DisposableIdentityVault.sol\":2596:2615  isCodeActive[_code] */\n      dup2\n      mstore\n      0x20\n      add\n      swap1\n      dup2\n      mstore\n      0x20\n      add\n      0x00\n      keccak256\n      0x00\n      swap1\n      sload\n      swap1\n      0x0100\n      exp\n      swap1\n      div\n      0xff\n      and\n        /* \"contracts/DisposableIdentityVault.sol\":2588:2649  require(isCodeActive[_code], \"Token invalid or already used\") */\n      tag_58\n      jumpi\n      mload(0x40)\n      0x08c379a000000000000000000000000000000000000000000000000000000000\n      dup2\n      mstore\n      0x04\n      add\n      tag_59\n      swap1\n      tag_60\n      jump\t// in\n    tag_59:\n      mload(0x40)\n      dup1\n      swap2\n      sub\n      swap1\n      revert\n    tag_58:\n        /* \"contracts/DisposableIdentityVault.sol\":2662:2685  bytes memory secretData */\n      0x00\n        /* \"contracts/DisposableIdentityVault.sol\":2688:2702  encryptedVault */\n      0x02\n        /* \"contracts/DisposableIdentityVault.sol\":2688:2709  encryptedVault[_code] */\n      0x00\n        /* \"contracts/DisposableIdentityVault.sol\":2703:2708  _code */\n      dup5\n        /* \"contracts/DisposableIdentityVault.sol\":2688:2709  encryptedVault[_code] */\n      dup2\n      mstore\n      0x20\n      add\n      swap1\n      dup2\n      mstore\n      0x20\n      add\n      0x00\n      keccak256\n        /* \"contracts/DisposableIdentityVault.sol\":2662:2709  bytes memory secretData = encryptedVault[_code] */\n      dup1\n      sload\n      tag_61\n      swap1\n      tag_62\n      jump\t// in\n    tag_61:\n      dup1\n      0x1f\n      add\n      0x20\n      dup1\n      swap2\n      div\n      mul\n      0x20\n      add\n      mload(0x40)\n      swap1\n      dup2\n      add\n      0x40\n      mstore\n      dup1\n      swap3\n      swap2\n      swap1\n      dup2\n      dup2\n      mstore\n      0x20\n      add\n      dup3\n      dup1\n      sload\n      tag_63\n      swap1\n      tag_62\n      jump\t// in\n    tag_63:\n      dup1\n      iszero\n      tag_64\n      jumpi\n      dup1\n      0x1f\n      lt\n      tag_65\n      jumpi\n      0x0100\n      dup1\n      dup4\n      sload\n      div\n      mul\n      dup4\n      mstore\n      swap2\n      0x20\n      add\n      swap2\n      jump(tag_64)\n    tag_65:\n      dup3\n      add\n      swap2\n      swap1\n      0x00\n      mstore\n      keccak256(0x00, 0x20)\n      swap1\n    tag_66:\n      dup2\n      sload\n      dup2\n      mstore\n      swap1\n      0x01\n      add\n      swap1\n      0x20\n      add\n      dup1\n      dup4\n      gt\n      tag_66\n      jumpi\n      dup3\n      swap1\n      sub\n      0x1f\n      and\n      dup3\n      add\n      swap2\n    tag_64:\n      pop\n      pop\n      pop\n      pop\n      pop\n      swap1\n      pop\n        /* \"contracts/DisposableIdentityVault.sol\":2766:2780  encryptedVault */\n      0x02\n        /* \"contracts/DisposableIdentityVault.sol\":2766:2787  encryptedVault[_code] */\n      0x00\n        /* \"contracts/DisposableIdentityVault.sol\":2781:2786  _code */\n      dup5\n        /* \"contracts/DisposableIdentityVault.sol\":2766:2787  encryptedVault[_code] */\n      dup2\n      mstore\n      0x20\n      add\n      swap1\n      dup2\n      mstore\n      0x20\n      add\n      0x00\n      keccak256\n      0x00\n        /* \"contracts/DisposableIdentityVault.sol\":2759:2787  delete encryptedVault[_code] */\n      tag_67\n      swap2\n      swap1\n      tag_68\n      jump\t// in\n    tag_67:\n        /* \"contracts/DisposableIdentityVault.sol\":2820:2825  false */\n      0x00\n        /* \"contracts/DisposableIdentityVault.sol\":2798:2810  isCodeActive */\n      0x03\n        /* \"contracts/DisposableIdentityVault.sol\":2798:2817  isCodeActive[_code] */\n      0x00\n        /* \"contracts/DisposableIdentityVault.sol\":2811:2816  _code */\n      dup6\n        /* \"contracts/DisposableIdentityVault.sol\":2798:2817  isCodeActive[_code] */\n      dup2\n      mstore\n      0x20\n      add\n      swap1\n      dup2\n      mstore\n      0x20\n      add\n      0x00\n      keccak256\n      0x00\n        /* \"contracts/DisposableIdentityVault.sol\":2798:2825  isCodeActive[_code] = false */\n      0x0100\n      exp\n      dup2\n      sload\n      dup2\n      0xff\n      mul\n      not\n      and\n      swap1\n      dup4\n      iszero\n      iszero\n      mul\n      or\n      swap1\n      sstore\n      pop\n        /* \"contracts/DisposableIdentityVault.sol\":2863:2873  msg.sender */\n      caller\n        /* \"contracts/DisposableIdentityVault.sol\":2843:2885  AccessLogged(_code, msg.sender, msg.value) */\n      0xffffffffffffffffffffffffffffffffffffffff\n      and\n        /* \"contracts/DisposableIdentityVault.sol\":2856:2861  _code */\n      dup4\n        /* \"contracts/DisposableIdentityVault.sol\":2843:2885  AccessLogged(_code, msg.sender, msg.value) */\n      0x490f8a73ed71d99716cb7c6572c8f49d4ff90b7963cca7749d76d28a74205b0e\n        /* \"contracts/DisposableIdentityVault.sol\":2875:2884  msg.value */\n      callvalue\n        /* \"contracts/DisposableIdentityVault.sol\":2843:2885  AccessLogged(_code, msg.sender, msg.value) */\n      mload(0x40)\n      tag_69\n      swap2\n      swap1\n      tag_27\n      jump\t// in\n    tag_69:\n      mload(0x40)\n      dup1\n      swap2\n      sub\n      swap1\n      log3\n        /* \"contracts/DisposableIdentityVault.sol\":2913:2923  secretData */\n      dup1\n        /* \"contracts/DisposableIdentityVault.sol\":2906:2923  return secretData */\n      swap2\n      pop\n      pop\n        /* \"contracts/DisposableIdentityVault.sol\":2428:2932  function businessRecall(uint256 _code) public payable returns (bytes memory) {... */\n      swap2\n      swap1\n      pop\n      jump\t// out\n        /* \"contracts/DisposableIdentityVault.sol\":506:543  uint256 public accessFee = 0.01 ether */\n    tag_25:\n      sload(0x01)\n      dup2\n      jump\t// out\n        /* \"contracts/DisposableIdentityVault.sol\":720:764  mapping(uint256 => bool) public isCodeActive */\n    tag_31:\n      mstore(0x20, 0x03)\n      dup1\n      0x00\n      mstore\n      keccak256(0x00, 0x40)\n      0x00\n      swap2\n      pop\n      sload\n      swap1\n      0x0100\n      exp\n      swap1\n      div\n      0xff\n      and\n      dup2\n      jump\t// out\n        /* \"contracts/DisposableIdentityVault.sol\":471:499  address payable public owner */\n    tag_36:\n      0x00\n      0x00\n      swap1\n      sload\n      swap1\n      0x0100\n      exp\n      swap1\n      div\n      0xffffffffffffffffffffffffffffffffffffffff\n      and\n      dup2\n      jump\t// out\n        /* \"contracts/DisposableIdentityVault.sol\":2180:2293  function checkTokenStatus(uint256 _code) public view returns (bool) {... */\n    tag_42:\n        /* \"contracts/DisposableIdentityVault.sol\":2242:2246  bool */\n      0x00\n        /* \"contracts/DisposableIdentityVault.sol\":2266:2278  isCodeActive */\n      0x03\n        /* \"contracts/DisposableIdentityVault.sol\":2266:2285  isCodeActive[_code] */\n      0x00\n        /* \"contracts/DisposableIdentityVault.sol\":2279:2284  _code */\n      dup4\n        /* \"contracts/DisposableIdentityVault.sol\":2266:2285  isCodeActive[_code] */\n      dup2\n      mstore\n      0x20\n      add\n      swap1\n      dup2\n      mstore\n      0x20\n      add\n      0x00\n      keccak256\n      0x00\n      swap1\n      sload\n      swap1\n      0x0100\n      exp\n      swap1\n      div\n      0xff\n      and\n        /* \"contracts/DisposableIdentityVault.sol\":2259:2285  return isCodeActive[_code] */\n      swap1\n      pop\n        /* \"contracts/DisposableIdentityVault.sol\":2180:2293  function checkTokenStatus(uint256 _code) public view returns (bool) {... */\n      swap2\n      swap1\n      pop\n      jump\t// out\n        /* \"contracts/DisposableIdentityVault.sol\":1352:2033  function generateAndStore(bytes memory _encryptedSecret, uint256 _count) public onlyOwner {... */\n    tag_48:\n        /* \"contracts/DisposableIdentityVault.sol\":1137:1142  owner */\n      0x00\n      0x00\n      swap1\n      sload\n      swap1\n      0x0100\n      exp\n      swap1\n      div\n      0xffffffffffffffffffffffffffffffffffffffff\n      and\n        /* \"contracts/DisposableIdentityVault.sol\":1123:1142  msg.sender == owner */\n      0xffffffffffffffffffffffffffffffffffffffff\n      and\n        /* \"contracts/DisposableIdentityVault.sol\":1123:1133  msg.sender */\n      caller\n        /* \"contracts/DisposableIdentityVault.sol\":1123:1142  msg.sender == owner */\n      0xffffffffffffffffffffffffffffffffffffffff\n      and\n      eq\n        /* \"contracts/DisposableIdentityVault.sol\":1115:1171  require(msg.sender == owner, \"Unauthorized: Admin only\") */\n      tag_72\n      jumpi\n      mload(0x40)\n      0x08c379a000000000000000000000000000000000000000000000000000000000\n      dup2\n      mstore\n      0x04\n      add\n      tag_73\n      swap1\n      tag_52\n      jump\t// in\n    tag_73:\n      mload(0x40)\n      dup1\n      swap2\n      sub\n      swap1\n      revert\n    tag_72:\n        /* \"contracts/DisposableIdentityVault.sol\":1537:1549  bytes32 seed */\n      0x00\n        /* \"contracts/DisposableIdentityVault.sol\":1579:1595  _encryptedSecret */\n      dup3\n        /* \"contracts/DisposableIdentityVault.sol\":1597:1612  block.timestamp */\n      timestamp\n        /* \"contracts/DisposableIdentityVault.sol\":1614:1624  msg.sender */\n      caller\n        /* \"contracts/DisposableIdentityVault.sol\":1562:1625  abi.encodePacked(_encryptedSecret, block.timestamp, msg.sender) */\n      add(0x20, mload(0x40))\n      tag_75\n      swap4\n      swap3\n      swap2\n      swap1\n      tag_76\n      jump\t// in\n    tag_75:\n      mload(0x40)\n      0x20\n      dup2\n      dup4\n      sub\n      sub\n      dup2\n      mstore\n      swap1\n      0x40\n      mstore\n        /* \"contracts/DisposableIdentityVault.sol\":1552:1626  keccak256(abi.encodePacked(_encryptedSecret, block.timestamp, msg.sender)) */\n      dup1\n      mload\n      swap1\n      0x20\n      add\n      keccak256\n        /* \"contracts/DisposableIdentityVault.sol\":1537:1626  bytes32 seed = keccak256(abi.encodePacked(_encryptedSecret, block.timestamp, msg.sender)) */\n      swap1\n      pop\n        /* \"contracts/DisposableIdentityVault.sol\":1652:1658  uint i */\n      0x00\n        /* \"contracts/DisposableIdentityVault.sol\":1661:1662  0 */\n      0x00\n        /* \"contracts/DisposableIdentityVault.sol\":1652:1662  uint i = 0 */\n      swap1\n      pop\n        /* \"contracts/DisposableIdentityVault.sol\":1647:2026  for (uint i = 0; i < _count; i++) {... */\n    tag_77:\n        /* \"contracts/DisposableIdentityVault.sol\":1668:1674  _count */\n      dup3\n        /* \"contracts/DisposableIdentityVault.sol\":1664:1665  i */\n      dup2\n        /* \"contracts/DisposableIdentityVault.sol\":1664:1674  i < _count */\n      lt\n        /* \"contracts/DisposableIdentityVault.sol\":1647:2026  for (uint i = 0; i < _count; i++) {... */\n      iszero\n      tag_78\n      jumpi\n        /* \"contracts/DisposableIdentityVault.sol\":1730:1734  seed */\n      dup2\n        /* \"contracts/DisposableIdentityVault.sol\":1736:1737  i */\n      dup2\n        /* \"contracts/DisposableIdentityVault.sol\":1713:1738  abi.encodePacked(seed, i) */\n      add(0x20, mload(0x40))\n      tag_80\n      swap3\n      swap2\n      swap1\n      tag_81\n      jump\t// in\n    tag_80:\n      mload(0x40)\n      0x20\n      dup2\n      dup4\n      sub\n      sub\n      dup2\n      mstore\n      swap1\n      0x40\n      mstore\n        /* \"contracts/DisposableIdentityVault.sol\":1703:1739  keccak256(abi.encodePacked(seed, i)) */\n      dup1\n      mload\n      swap1\n      0x20\n      add\n      keccak256\n        /* \"contracts/DisposableIdentityVault.sol\":1696:1739  seed = keccak256(abi.encodePacked(seed, i)) */\n      swap2\n      pop\n        /* \"contracts/DisposableIdentityVault.sol\":1805:1817  uint256 code */\n      0x00\n        /* \"contracts/DisposableIdentityVault.sol\":1858:1864  10**15 */\n      0x038d7ea4c68000\n        /* \"contracts/DisposableIdentityVault.sol\":1838:1853  10**27 - 10**15 */\n      0x033b2e3c9fccf2be43398000\n        /* \"contracts/DisposableIdentityVault.sol\":1829:1833  seed */\n      dup5\n        /* \"contracts/DisposableIdentityVault.sol\":1821:1834  uint256(seed) */\n      0x00\n      shr\n        /* \"contracts/DisposableIdentityVault.sol\":1821:1854  uint256(seed) % (10**27 - 10**15) */\n      tag_82\n      swap2\n      swap1\n      tag_83\n      jump\t// in\n    tag_82:\n        /* \"contracts/DisposableIdentityVault.sol\":1820:1864  (uint256(seed) % (10**27 - 10**15)) + 10**15 */\n      tag_84\n      swap2\n      swap1\n      tag_85\n      jump\t// in\n    tag_84:\n        /* \"contracts/DisposableIdentityVault.sol\":1805:1864  uint256 code = (uint256(seed) % (10**27 - 10**15)) + 10**15 */\n      swap1\n      pop\n        /* \"contracts/DisposableIdentityVault.sol\":1916:1932  _encryptedSecret */\n      dup5\n        /* \"contracts/DisposableIdentityVault.sol\":1893:1907  encryptedVault */\n      0x02\n        /* \"contracts/DisposableIdentityVault.sol\":1893:1913  encryptedVault[code] */\n      0x00\n        /* \"contracts/DisposableIdentityVault.sol\":1908:1912  code */\n      dup4\n        /* \"contracts/DisposableIdentityVault.sol\":1893:1913  encryptedVault[code] */\n      dup2\n      mstore\n      0x20\n      add\n      swap1\n      dup2\n      mstore\n      0x20\n      add\n      0x00\n      keccak256\n        /* \"contracts/DisposableIdentityVault.sol\":1893:1932  encryptedVault[code] = _encryptedSecret */\n      swap1\n      dup2\n      tag_86\n      swap2\n      swap1\n      tag_87\n      jump\t// in\n    tag_86:\n      pop\n        /* \"contracts/DisposableIdentityVault.sol\":1968:1972  true */\n      0x01\n        /* \"contracts/DisposableIdentityVault.sol\":1947:1959  isCodeActive */\n      0x03\n        /* \"contracts/DisposableIdentityVault.sol\":1947:1965  isCodeActive[code] */\n      0x00\n        /* \"contracts/DisposableIdentityVault.sol\":1960:1964  code */\n      dup4\n        /* \"contracts/DisposableIdentityVault.sol\":1947:1965  isCodeActive[code] */\n      dup2\n      mstore\n      0x20\n      add\n      swap1\n      dup2\n      mstore\n      0x20\n      add\n      0x00\n      keccak256\n      0x00\n        /* \"contracts/DisposableIdentityVault.sol\":1947:1972  isCodeActive[code] = true */\n      0x0100\n      exp\n      dup2\n      sload\n      dup2\n      0xff\n      mul\n      not\n      and\n      swap1\n      dup4\n      iszero\n      iszero\n      mul\n      or\n      swap1\n      sstore\n      pop\n        /* \"contracts/DisposableIdentityVault.sol\":2009:2013  code */\n      dup1\n        /* \"contracts/DisposableIdentityVault.sol\":1994:2014  TokenGenerated(code) */\n      0x4741daafb1243a56f8dea8d1462c2aebd38dc3c3644d2fbe91cc10df7fb699bd\n      mload(0x40)\n      mload(0x40)\n      dup1\n      swap2\n      sub\n      swap1\n      log2\n        /* \"contracts/DisposableIdentityVault.sol\":1681:2026  {... */\n      pop\n        /* \"contracts/DisposableIdentityVault.sol\":1676:1679  i++ */\n      dup1\n      dup1\n      0x01\n      add\n      swap2\n      pop\n      pop\n        /* \"contracts/DisposableIdentityVault.sol\":1647:2026  for (uint i = 0; i < _count; i++) {... */\n      jump(tag_77)\n    tag_78:\n      pop\n        /* \"contracts/DisposableIdentityVault.sol\":1442:2033  {... */\n      pop\n        /* \"contracts/DisposableIdentityVault.sol\":1352:2033  function generateAndStore(bytes memory _encryptedSecret, uint256 _count) public onlyOwner {... */\n      pop\n      pop\n      jump\t// out\n    tag_68:\n      pop\n      dup1\n      sload\n      tag_88\n      swap1\n      tag_62\n      jump\t// in\n    tag_88:\n      0x00\n      dup3\n      sstore\n      dup1\n      0x1f\n      lt\n      tag_90\n      jumpi\n      pop\n      jump(tag_89)\n    tag_90:\n      0x1f\n      add\n      0x20\n      swap1\n      div\n      swap1\n      0x00\n      mstore\n      keccak256(0x00, 0x20)\n      swap1\n      dup2\n      add\n      swap1\n      tag_91\n      swap2\n      swap1\n      tag_92\n      jump\t// in\n    tag_91:\n    tag_89:\n      pop\n      jump\t// out\n    tag_92:\n    tag_93:\n      dup1\n      dup3\n      gt\n      iszero\n      tag_94\n      jumpi\n      0x00\n      dup2\n      0x00\n      swap1\n      sstore\n      pop\n      0x01\n      add\n      jump(tag_93)\n    tag_94:\n      pop\n      swap1\n      jump\t// out\n        /* \"#utility.yul\":7:82   */\n    tag_95:\n        /* \"#utility.yul\":40:46   */\n      0x00\n        /* \"#utility.yul\":73:75   */\n      0x40\n        /* \"#utility.yul\":67:76   */\n      mload\n        /* \"#utility.yul\":57:76   */\n      swap1\n      pop\n        /* \"#utility.yul\":7:82   */\n      swap1\n      jump\t// out\n        /* \"#utility.yul\":88:205   */\n    tag_96:\n        /* \"#utility.yul\":197:198   */\n      0x00\n        /* \"#utility.yul\":194:195   */\n      0x00\n        /* \"#utility.yul\":187:199   */\n      revert\n        /* \"#utility.yul\":211:328   */\n    tag_97:\n        /* \"#utility.yul\":320:321   */\n      0x00\n        /* \"#utility.yul\":317:318   */\n      0x00\n        /* \"#utility.yul\":310:322   */\n      revert\n        /* \"#utility.yul\":334:411   */\n    tag_98:\n        /* \"#utility.yul\":371:378   */\n      0x00\n        /* \"#utility.yul\":400:405   */\n      dup2\n        /* \"#utility.yul\":389:405   */\n      swap1\n      pop\n        /* \"#utility.yul\":334:411   */\n      swap2\n      swap1\n      pop\n      jump\t// out\n        /* \"#utility.yul\":417:539   */\n    tag_99:\n        /* \"#utility.yul\":490:514   */\n      tag_164\n        /* \"#utility.yul\":508:513   */\n      dup2\n        /* \"#utility.yul\":490:514   */\n      tag_98\n      jump\t// in\n    tag_164:\n        /* \"#utility.yul\":483:488   */\n      dup2\n        /* \"#utility.yul\":480:515   */\n      eq\n        /* \"#utility.yul\":470:533   */\n      tag_165\n      jumpi\n        /* \"#utility.yul\":529:530   */\n      0x00\n        /* \"#utility.yul\":526:527   */\n      0x00\n        /* \"#utility.yul\":519:531   */\n      revert\n        /* \"#utility.yul\":470:533   */\n    tag_165:\n        /* \"#utility.yul\":417:539   */\n      pop\n      jump\t// out\n        /* \"#utility.yul\":545:684   */\n    tag_100:\n        /* \"#utility.yul\":591:596   */\n      0x00\n        /* \"#utility.yul\":629:635   */\n      dup2\n        /* \"#utility.yul\":616:636   */\n      calldataload\n        /* \"#utility.yul\":607:636   */\n      swap1\n      pop\n        /* \"#utility.yul\":645:678   */\n      tag_167\n        /* \"#utility.yul\":672:677   */\n      dup2\n        /* \"#utility.yul\":645:678   */\n      tag_99\n      jump\t// in\n    tag_167:\n        /* \"#utility.yul\":545:684   */\n      swap3\n      swap2\n      pop\n      pop\n      jump\t// out\n        /* \"#utility.yul\":690:1019   */\n    tag_16:\n        /* \"#utility.yul\":749:755   */\n      0x00\n        /* \"#utility.yul\":798:800   */\n      0x20\n        /* \"#utility.yul\":786:795   */\n      dup3\n        /* \"#utility.yul\":777:784   */\n      dup5\n        /* \"#utility.yul\":773:796   */\n      sub\n        /* \"#utility.yul\":769:801   */\n      slt\n        /* \"#utility.yul\":766:885   */\n      iszero\n      tag_169\n      jumpi\n        /* \"#utility.yul\":804:883   */\n      tag_170\n      tag_96\n      jump\t// in\n    tag_170:\n        /* \"#utility.yul\":766:885   */\n    tag_169:\n        /* \"#utility.yul\":924:925   */\n      0x00\n        /* \"#utility.yul\":949:1002   */\n      tag_171\n        /* \"#utility.yul\":994:1001   */\n      dup5\n        /* \"#utility.yul\":985:991   */\n      dup3\n        /* \"#utility.yul\":974:983   */\n      dup6\n        /* \"#utility.yul\":970:992   */\n      add\n        /* \"#utility.yul\":949:1002   */\n      tag_100\n      jump\t// in\n    tag_171:\n        /* \"#utility.yul\":939:1002   */\n      swap2\n      pop\n        /* \"#utility.yul\":895:1012   */\n      pop\n        /* \"#utility.yul\":690:1019   */\n      swap3\n      swap2\n      pop\n      pop\n      jump\t// out\n        /* \"#utility.yul\":1025:1123   */\n    tag_101:\n        /* \"#utility.yul\":1076:1082   */\n      0x00\n        /* \"#utility.yul\":1110:1115   */\n      dup2\n        /* \"#utility.yul\":1104:1116   */\n      mload\n        /* \"#utility.yul\":1094:1116   */\n      swap1\n      pop\n        /* \"#utility.yul\":1025:1123   */\n      swap2\n      swap1\n      pop\n      jump\t// out\n        /* \"#utility.yul\":1129:1297   */\n    tag_102:\n        /* \"#utility.yul\":1212:1223   */\n      0x00\n        /* \"#utility.yul\":1246:1252   */\n      dup3\n        /* \"#utility.yul\":1241:1244   */\n      dup3\n        /* \"#utility.yul\":1234:1253   */\n      mstore\n        /* \"#utility.yul\":1286:1290   */\n      0x20\n        /* \"#utility.yul\":1281:1284   */\n      dup3\n        /* \"#utility.yul\":1277:1291   */\n      add\n        /* \"#utility.yul\":1262:1291   */\n      swap1\n      pop\n        /* \"#utility.yul\":1129:1297   */\n      swap3\n      swap2\n      pop\n      pop\n      jump\t// out\n        /* \"#utility.yul\":1303:1442   */\n    tag_103:\n        /* \"#utility.yul\":1392:1398   */\n      dup3\n        /* \"#utility.yul\":1387:1390   */\n      dup2\n        /* \"#utility.yul\":1382:1385   */\n      dup4\n        /* \"#utility.yul\":1376:1399   */\n      mcopy\n        /* \"#utility.yul\":1433:1434   */\n      0x00\n        /* \"#utility.yul\":1424:1430   */\n      dup4\n        /* \"#utility.yul\":1419:1422   */\n      dup4\n        /* \"#utility.yul\":1415:1431   */\n      add\n        /* \"#utility.yul\":1408:1435   */\n      mstore\n        /* \"#utility.yul\":1303:1442   */\n      pop\n      pop\n      pop\n      jump\t// out\n        /* \"#utility.yul\":1448:1550   */\n    tag_104:\n        /* \"#utility.yul\":1489:1495   */\n      0x00\n        /* \"#utility.yul\":1540:1542   */\n      0x1f\n        /* \"#utility.yul\":1536:1543   */\n      not\n        /* \"#utility.yul\":1531:1533   */\n      0x1f\n        /* \"#utility.yul\":1524:1529   */\n      dup4\n        /* \"#utility.yul\":1520:1534   */\n      add\n        /* \"#utility.yul\":1516:1544   */\n      and\n        /* \"#utility.yul\":1506:1544   */\n      swap1\n      pop\n        /* \"#utility.yul\":1448:1550   */\n      swap2\n      swap1\n      pop\n      jump\t// out\n        /* \"#utility.yul\":1556:1929   */\n    tag_105:\n        /* \"#utility.yul\":1642:1645   */\n      0x00\n        /* \"#utility.yul\":1670:1708   */\n      tag_177\n        /* \"#utility.yul\":1702:1707   */\n      dup3\n        /* \"#utility.yul\":1670:1708   */\n      tag_101\n      jump\t// in\n    tag_177:\n        /* \"#utility.yul\":1724:1794   */\n      tag_178\n        /* \"#utility.yul\":1787:1793   */\n      dup2\n        /* \"#utility.yul\":1782:1785   */\n      dup6\n        /* \"#utility.yul\":1724:1794   */\n      tag_102\n      jump\t// in\n    tag_178:\n        /* \"#utility.yul\":1717:1794   */\n      swap4\n      pop\n        /* \"#utility.yul\":1803:1868   */\n      tag_179\n        /* \"#utility.yul\":1861:1867   */\n      dup2\n        /* \"#utility.yul\":1856:1859   */\n      dup6\n        /* \"#utility.yul\":1849:1853   */\n      0x20\n        /* \"#utility.yul\":1842:1847   */\n      dup7\n        /* \"#utility.yul\":1838:1854   */\n      add\n        /* \"#utility.yul\":1803:1868   */\n      tag_103\n      jump\t// in\n    tag_179:\n        /* \"#utility.yul\":1893:1922   */\n      tag_180\n        /* \"#utility.yul\":1915:1921   */\n      dup2\n        /* \"#utility.yul\":1893:1922   */\n      tag_104\n      jump\t// in\n    tag_180:\n        /* \"#utility.yul\":1888:1891   */\n      dup5\n        /* \"#utility.yul\":1884:1923   */\n      add\n        /* \"#utility.yul\":1877:1923   */\n      swap2\n      pop\n        /* \"#utility.yul\":1646:1929   */\n      pop\n        /* \"#utility.yul\":1556:1929   */\n      swap3\n      swap2\n      pop\n      pop\n      jump\t// out\n        /* \"#utility.yul\":1935:2244   */\n    tag_22:\n        /* \"#utility.yul\":2046:2050   */\n      0x00\n        /* \"#utility.yul\":2084:2086   */\n      0x20\n        /* \"#utility.yul\":2073:2082   */\n      dup3\n        /* \"#utility.yul\":2069:2087   */\n      add\n        /* \"#utility.yul\":2061:2087   */\n      swap1\n      pop\n        /* \"#utility.yul\":2133:2142   */\n      dup2\n        /* \"#utility.yul\":2127:2131   */\n      dup2\n        /* \"#utility.yul\":2123:2143   */\n      sub\n        /* \"#utility.yul\":2119:2120   */\n      0x00\n        /* \"#utility.yul\":2108:2117   */\n      dup4\n        /* \"#utility.yul\":2104:2121   */\n      add\n        /* \"#utility.yul\":2097:2144   */\n      mstore\n        /* \"#utility.yul\":2161:2237   */\n      tag_182\n        /* \"#utility.yul\":2232:2236   */\n      dup2\n        /* \"#utility.yul\":2223:2229   */\n      dup5\n        /* \"#utility.yul\":2161:2237   */\n      tag_105\n      jump\t// in\n    tag_182:\n        /* \"#utility.yul\":2153:2237   */\n      swap1\n      pop\n        /* \"#utility.yul\":1935:2244   */\n      swap3\n      swap2\n      pop\n      pop\n      jump\t// out\n        /* \"#utility.yul\":2250:2368   */\n    tag_106:\n        /* \"#utility.yul\":2337:2361   */\n      tag_184\n        /* \"#utility.yul\":2355:2360   */\n      dup2\n        /* \"#utility.yul\":2337:2361   */\n      tag_98\n      jump\t// in\n    tag_184:\n        /* \"#utility.yul\":2332:2335   */\n      dup3\n        /* \"#utility.yul\":2325:2362   */\n      mstore\n        /* \"#utility.yul\":2250:2368   */\n      pop\n      pop\n      jump\t// out\n        /* \"#utility.yul\":2374:2596   */\n    tag_27:\n        /* \"#utility.yul\":2467:2471   */\n      0x00\n        /* \"#utility.yul\":2505:2507   */\n      0x20\n        /* \"#utility.yul\":2494:2503   */\n      dup3\n        /* \"#utility.yul\":2490:2508   */\n      add\n        /* \"#utility.yul\":2482:2508   */\n      swap1\n      pop\n        /* \"#utility.yul\":2518:2589   */\n      tag_186\n        /* \"#utility.yul\":2586:2587   */\n      0x00\n        /* \"#utility.yul\":2575:2584   */\n      dup4\n        /* \"#utility.yul\":2571:2588   */\n      add\n        /* \"#utility.yul\":2562:2568   */\n      dup5\n        /* \"#utility.yul\":2518:2589   */\n      tag_106\n      jump\t// in\n    tag_186:\n        /* \"#utility.yul\":2374:2596   */\n      swap3\n      swap2\n      pop\n      pop\n      jump\t// out\n        /* \"#utility.yul\":2602:2692   */\n    tag_107:\n        /* \"#utility.yul\":2636:2643   */\n      0x00\n        /* \"#utility.yul\":2679:2684   */\n      dup2\n        /* \"#utility.yul\":2672:2685   */\n      iszero\n        /* \"#utility.yul\":2665:2686   */\n      iszero\n        /* \"#utility.yul\":2654:2686   */\n      swap1\n      pop\n        /* \"#utility.yul\":2602:2692   */\n      swap2\n      swap1\n      pop\n      jump\t// out\n        /* \"#utility.yul\":2698:2807   */\n    tag_108:\n        /* \"#utility.yul\":2779:2800   */\n      tag_189\n        /* \"#utility.yul\":2794:2799   */\n      dup2\n        /* \"#utility.yul\":2779:2800   */\n      tag_107\n      jump\t// in\n    tag_189:\n        /* \"#utility.yul\":2774:2777   */\n      dup3\n        /* \"#utility.yul\":2767:2801   */\n      mstore\n        /* \"#utility.yul\":2698:2807   */\n      pop\n      pop\n      jump\t// out\n        /* \"#utility.yul\":2813:3023   */\n    tag_33:\n        /* \"#utility.yul\":2900:2904   */\n      0x00\n        /* \"#utility.yul\":2938:2940   */\n      0x20\n        /* \"#utility.yul\":2927:2936   */\n      dup3\n        /* \"#utility.yul\":2923:2941   */\n      add\n        /* \"#utility.yul\":2915:2941   */\n      swap1\n      pop\n        /* \"#utility.yul\":2951:3016   */\n      tag_191\n        /* \"#utility.yul\":3013:3014   */\n      0x00\n        /* \"#utility.yul\":3002:3011   */\n      dup4\n        /* \"#utility.yul\":2998:3015   */\n      add\n        /* \"#utility.yul\":2989:2995   */\n      dup5\n        /* \"#utility.yul\":2951:3016   */\n      tag_108\n      jump\t// in\n    tag_191:\n        /* \"#utility.yul\":2813:3023   */\n      swap3\n      swap2\n      pop\n      pop\n      jump\t// out\n        /* \"#utility.yul\":3029:3155   */\n    tag_109:\n        /* \"#utility.yul\":3066:3073   */\n      0x00\n        /* \"#utility.yul\":3106:3148   */\n      0xffffffffffffffffffffffffffffffffffffffff\n        /* \"#utility.yul\":3099:3104   */\n      dup3\n        /* \"#utility.yul\":3095:3149   */\n      and\n        /* \"#utility.yul\":3084:3149   */\n      swap1\n      pop\n        /* \"#utility.yul\":3029:3155   */\n      swap2\n      swap1\n      pop\n      jump\t// out\n        /* \"#utility.yul\":3161:3265   */\n    tag_110:\n        /* \"#utility.yul\":3206:3213   */\n      0x00\n        /* \"#utility.yul\":3235:3259   */\n      tag_194\n        /* \"#utility.yul\":3253:3258   */\n      dup3\n        /* \"#utility.yul\":3235:3259   */\n      tag_109\n      jump\t// in\n    tag_194:\n        /* \"#utility.yul\":3224:3259   */\n      swap1\n      pop\n        /* \"#utility.yul\":3161:3265   */\n      swap2\n      swap1\n      pop\n      jump\t// out\n        /* \"#utility.yul\":3271:3413   */\n    tag_111:\n        /* \"#utility.yul\":3374:3406   */\n      tag_196\n        /* \"#utility.yul\":3400:3405   */\n      dup2\n        /* \"#utility.yul\":3374:3406   */\n      tag_110\n      jump\t// in\n    tag_196:\n        /* \"#utility.yul\":3369:3372   */\n      dup3\n        /* \"#utility.yul\":3362:3407   */\n      mstore\n        /* \"#utility.yul\":3271:3413   */\n      pop\n      pop\n      jump\t// out\n        /* \"#utility.yul\":3419:3673   */\n    tag_38:\n        /* \"#utility.yul\":3528:3532   */\n      0x00\n        /* \"#utility.yul\":3566:3568   */\n      0x20\n        /* \"#utility.yul\":3555:3564   */\n      dup3\n        /* \"#utility.yul\":3551:3569   */\n      add\n        /* \"#utility.yul\":3543:3569   */\n      swap1\n      pop\n        /* \"#utility.yul\":3579:3666   */\n      tag_198\n        /* \"#utility.yul\":3663:3664   */\n      0x00\n        /* \"#utility.yul\":3652:3661   */\n      dup4\n        /* \"#utility.yul\":3648:3665   */\n      add\n        /* \"#utility.yul\":3639:3645   */\n      dup5\n        /* \"#utility.yul\":3579:3666   */\n      tag_111\n      jump\t// in\n    tag_198:\n        /* \"#utility.yul\":3419:3673   */\n      swap3\n      swap2\n      pop\n      pop\n      jump\t// out\n        /* \"#utility.yul\":3679:3796   */\n    tag_112:\n        /* \"#utility.yul\":3788:3789   */\n      0x00\n        /* \"#utility.yul\":3785:3786   */\n      0x00\n        /* \"#utility.yul\":3778:3790   */\n      revert\n        /* \"#utility.yul\":3802:3919   */\n    tag_113:\n        /* \"#utility.yul\":3911:3912   */\n      0x00\n        /* \"#utility.yul\":3908:3909   */\n      0x00\n        /* \"#utility.yul\":3901:3913   */\n      revert\n        /* \"#utility.yul\":3925:4105   */\n    tag_114:\n        /* \"#utility.yul\":3973:4050   */\n      0x4e487b7100000000000000000000000000000000000000000000000000000000\n        /* \"#utility.yul\":3970:3971   */\n      0x00\n        /* \"#utility.yul\":3963:4051   */\n      mstore\n        /* \"#utility.yul\":4070:4074   */\n      0x41\n        /* \"#utility.yul\":4067:4068   */\n      0x04\n        /* \"#utility.yul\":4060:4075   */\n      mstore\n        /* \"#utility.yul\":4094:4098   */\n      0x24\n        /* \"#utility.yul\":4091:4092   */\n      0x00\n        /* \"#utility.yul\":4084:4099   */\n      revert\n        /* \"#utility.yul\":4111:4392   */\n    tag_115:\n        /* \"#utility.yul\":4194:4221   */\n      tag_203\n        /* \"#utility.yul\":4216:4220   */\n      dup3\n        /* \"#utility.yul\":4194:4221   */\n      tag_104\n      jump\t// in\n    tag_203:\n        /* \"#utility.yul\":4186:4192   */\n      dup2\n        /* \"#utility.yul\":4182:4222   */\n      add\n        /* \"#utility.yul\":4324:4330   */\n      dup2\n        /* \"#utility.yul\":4312:4322   */\n      dup2\n        /* \"#utility.yul\":4309:4331   */\n      lt\n        /* \"#utility.yul\":4288:4306   */\n      0xffffffffffffffff\n        /* \"#utility.yul\":4276:4286   */\n      dup3\n        /* \"#utility.yul\":4273:4307   */\n      gt\n        /* \"#utility.yul\":4270:4332   */\n      or\n        /* \"#utility.yul\":4267:4355   */\n      iszero\n      tag_204\n      jumpi\n        /* \"#utility.yul\":4335:4353   */\n      tag_205\n      tag_114\n      jump\t// in\n    tag_205:\n        /* \"#utility.yul\":4267:4355   */\n    tag_204:\n        /* \"#utility.yul\":4375:4385   */\n      dup1\n        /* \"#utility.yul\":4371:4373   */\n      0x40\n        /* \"#utility.yul\":4364:4386   */\n      mstore\n        /* \"#utility.yul\":4154:4392   */\n      pop\n        /* \"#utility.yul\":4111:4392   */\n      pop\n      pop\n      jump\t// out\n        /* \"#utility.yul\":4398:4527   */\n    tag_116:\n        /* \"#utility.yul\":4432:4438   */\n      0x00\n        /* \"#utility.yul\":4459:4479   */\n      tag_207\n      tag_95\n      jump\t// in\n    tag_207:\n        /* \"#utility.yul\":4449:4479   */\n      swap1\n      pop\n        /* \"#utility.yul\":4488:4521   */\n      tag_208\n        /* \"#utility.yul\":4516:4520   */\n      dup3\n        /* \"#utility.yul\":4508:4514   */\n      dup3\n        /* \"#utility.yul\":4488:4521   */\n      tag_115\n      jump\t// in\n    tag_208:\n        /* \"#utility.yul\":4398:4527   */\n      swap2\n      swap1\n      pop\n      jump\t// out\n        /* \"#utility.yul\":4533:4840   */\n    tag_117:\n        /* \"#utility.yul\":4594:4598   */\n      0x00\n        /* \"#utility.yul\":4684:4702   */\n      0xffffffffffffffff\n        /* \"#utility.yul\":4676:4682   */\n      dup3\n        /* \"#utility.yul\":4673:4703   */\n      gt\n        /* \"#utility.yul\":4670:4726   */\n      iszero\n      tag_210\n      jumpi\n        /* \"#utility.yul\":4706:4724   */\n      tag_211\n      tag_114\n      jump\t// in\n    tag_211:\n        /* \"#utility.yul\":4670:4726   */\n    tag_210:\n        /* \"#utility.yul\":4744:4773   */\n      tag_212\n        /* \"#utility.yul\":4766:4772   */\n      dup3\n        /* \"#utility.yul\":4744:4773   */\n      tag_104\n      jump\t// in\n    tag_212:\n        /* \"#utility.yul\":4736:4773   */\n      swap1\n      pop\n        /* \"#utility.yul\":4828:4832   */\n      0x20\n        /* \"#utility.yul\":4822:4826   */\n      dup2\n        /* \"#utility.yul\":4818:4833   */\n      add\n        /* \"#utility.yul\":4810:4833   */\n      swap1\n      pop\n        /* \"#utility.yul\":4533:4840   */\n      swap2\n      swap1\n      pop\n      jump\t// out\n        /* \"#utility.yul\":4846:4994   */\n    tag_118:\n        /* \"#utility.yul\":4944:4950   */\n      dup3\n        /* \"#utility.yul\":4939:4942   */\n      dup2\n        /* \"#utility.yul\":4934:4937   */\n      dup4\n        /* \"#utility.yul\":4921:4951   */\n      calldatacopy\n        /* \"#utility.yul\":4985:4986   */\n      0x00\n        /* \"#utility.yul\":4976:4982   */\n      dup4\n        /* \"#utility.yul\":4971:4974   */\n      dup4\n        /* \"#utility.yul\":4967:4983   */\n      add\n        /* \"#utility.yul\":4960:4987   */\n      mstore\n        /* \"#utility.yul\":4846:4994   */\n      pop\n      pop\n      pop\n      jump\t// out\n        /* \"#utility.yul\":5000:5423   */\n    tag_119:\n        /* \"#utility.yul\":5077:5082   */\n      0x00\n        /* \"#utility.yul\":5102:5167   */\n      tag_215\n        /* \"#utility.yul\":5118:5166   */\n      tag_216\n        /* \"#utility.yul\":5159:5165   */\n      dup5\n        /* \"#utility.yul\":5118:5166   */\n      tag_117\n      jump\t// in\n    tag_216:\n        /* \"#utility.yul\":5102:5167   */\n      tag_116\n      jump\t// in\n    tag_215:\n        /* \"#utility.yul\":5093:5167   */\n      swap1\n      pop\n        /* \"#utility.yul\":5190:5196   */\n      dup3\n        /* \"#utility.yul\":5183:5188   */\n      dup2\n        /* \"#utility.yul\":5176:5197   */\n      mstore\n        /* \"#utility.yul\":5228:5232   */\n      0x20\n        /* \"#utility.yul\":5221:5226   */\n      dup2\n        /* \"#utility.yul\":5217:5233   */\n      add\n        /* \"#utility.yul\":5266:5269   */\n      dup5\n        /* \"#utility.yul\":5257:5263   */\n      dup5\n        /* \"#utility.yul\":5252:5255   */\n      dup5\n        /* \"#utility.yul\":5248:5264   */\n      add\n        /* \"#utility.yul\":5245:5270   */\n      gt\n        /* \"#utility.yul\":5242:5354   */\n      iszero\n      tag_217\n      jumpi\n        /* \"#utility.yul\":5273:5352   */\n      tag_218\n      tag_113\n      jump\t// in\n    tag_218:\n        /* \"#utility.yul\":5242:5354   */\n    tag_217:\n        /* \"#utility.yul\":5363:5417   */\n      tag_219\n        /* \"#utility.yul\":5410:5416   */\n      dup5\n        /* \"#utility.yul\":5405:5408   */\n      dup3\n        /* \"#utility.yul\":5400:5403   */\n      dup6\n        /* \"#utility.yul\":5363:5417   */\n      tag_118\n      jump\t// in\n    tag_219:\n        /* \"#utility.yul\":5083:5423   */\n      pop\n        /* \"#utility.yul\":5000:5423   */\n      swap4\n      swap3\n      pop\n      pop\n      pop\n      jump\t// out\n        /* \"#utility.yul\":5442:5780   */\n    tag_120:\n        /* \"#utility.yul\":5497:5502   */\n      0x00\n        /* \"#utility.yul\":5546:5549   */\n      dup3\n        /* \"#utility.yul\":5539:5543   */\n      0x1f\n        /* \"#utility.yul\":5531:5537   */\n      dup4\n        /* \"#utility.yul\":5527:5544   */\n      add\n        /* \"#utility.yul\":5523:5550   */\n      slt\n        /* \"#utility.yul\":5513:5635   */\n      tag_221\n      jumpi\n        /* \"#utility.yul\":5554:5633   */\n      tag_222\n      tag_112\n      jump\t// in\n    tag_222:\n        /* \"#utility.yul\":5513:5635   */\n    tag_221:\n        /* \"#utility.yul\":5671:5677   */\n      dup2\n        /* \"#utility.yul\":5658:5678   */\n      calldataload\n        /* \"#utility.yul\":5696:5774   */\n      tag_223\n        /* \"#utility.yul\":5770:5773   */\n      dup5\n        /* \"#utility.yul\":5762:5768   */\n      dup3\n        /* \"#utility.yul\":5755:5759   */\n      0x20\n        /* \"#utility.yul\":5747:5753   */\n      dup7\n        /* \"#utility.yul\":5743:5760   */\n      add\n        /* \"#utility.yul\":5696:5774   */\n      tag_119\n      jump\t// in\n    tag_223:\n        /* \"#utility.yul\":5687:5774   */\n      swap2\n      pop\n        /* \"#utility.yul\":5503:5780   */\n      pop\n        /* \"#utility.yul\":5442:5780   */\n      swap3\n      swap2\n      pop\n      pop\n      jump\t// out\n        /* \"#utility.yul\":5786:6438   */\n    tag_47:\n        /* \"#utility.yul\":5863:5869   */\n      0x00\n        /* \"#utility.yul\":5871:5877   */\n      0x00\n        /* \"#utility.yul\":5920:5922   */\n      0x40\n        /* \"#utility.yul\":5908:5917   */\n      dup4\n        /* \"#utility.yul\":5899:5906   */\n      dup6\n        /* \"#utility.yul\":5895:5918   */\n      sub\n        /* \"#utility.yul\":5891:5923   */\n      slt\n        /* \"#utility.yul\":5888:6007   */\n      iszero\n      tag_225\n      jumpi\n        /* \"#utility.yul\":5926:6005   */\n      tag_226\n      tag_96\n      jump\t// in\n    tag_226:\n        /* \"#utility.yul\":5888:6007   */\n    tag_225:\n        /* \"#utility.yul\":6074:6075   */\n      0x00\n        /* \"#utility.yul\":6063:6072   */\n      dup4\n        /* \"#utility.yul\":6059:6076   */\n      add\n        /* \"#utility.yul\":6046:6077   */\n      calldataload\n        /* \"#utility.yul\":6104:6122   */\n      0xffffffffffffffff\n        /* \"#utility.yul\":6096:6102   */\n      dup2\n        /* \"#utility.yul\":6093:6123   */\n      gt\n        /* \"#utility.yul\":6090:6207   */\n      iszero\n      tag_227\n      jumpi\n        /* \"#utility.yul\":6126:6205   */\n      tag_228\n      tag_97\n      jump\t// in\n    tag_228:\n        /* \"#utility.yul\":6090:6207   */\n    tag_227:\n        /* \"#utility.yul\":6231:6293   */\n      tag_229\n        /* \"#utility.yul\":6285:6292   */\n      dup6\n        /* \"#utility.yul\":6276:6282   */\n      dup3\n        /* \"#utility.yul\":6265:6274   */\n      dup7\n        /* \"#utility.yul\":6261:6283   */\n      add\n        /* \"#utility.yul\":6231:6293   */\n      tag_120\n      jump\t// in\n    tag_229:\n        /* \"#utility.yul\":6221:6293   */\n      swap3\n      pop\n        /* \"#utility.yul\":6017:6303   */\n      pop\n        /* \"#utility.yul\":6342:6344   */\n      0x20\n        /* \"#utility.yul\":6368:6421   */\n      tag_230\n        /* \"#utility.yul\":6413:6420   */\n      dup6\n        /* \"#utility.yul\":6404:6410   */\n      dup3\n        /* \"#utility.yul\":6393:6402   */\n      dup7\n        /* \"#utility.yul\":6389:6411   */\n      add\n        /* \"#utility.yul\":6368:6421   */\n      tag_100\n      jump\t// in\n    tag_230:\n        /* \"#utility.yul\":6358:6421   */\n      swap2\n      pop\n        /* \"#utility.yul\":6313:6431   */\n      pop\n        /* \"#utility.yul\":5786:6438   */\n      swap3\n      pop\n      swap3\n      swap1\n      pop\n      jump\t// out\n        /* \"#utility.yul\":6444:6613   */\n    tag_121:\n        /* \"#utility.yul\":6528:6539   */\n      0x00\n        /* \"#utility.yul\":6562:6568   */\n      dup3\n        /* \"#utility.yul\":6557:6560   */\n      dup3\n        /* \"#utility.yul\":6550:6569   */\n      mstore\n        /* \"#utility.yul\":6602:6606   */\n      0x20\n        /* \"#utility.yul\":6597:6600   */\n      dup3\n        /* \"#utility.yul\":6593:6607   */\n      add\n        /* \"#utility.yul\":6578:6607   */\n      swap1\n      pop\n        /* \"#utility.yul\":6444:6613   */\n      swap3\n      swap2\n      pop\n      pop\n      jump\t// out\n        /* \"#utility.yul\":6619:6793   */\n    tag_122:\n        /* \"#utility.yul\":6759:6785   */\n      0x556e617574686f72697a65643a2041646d696e206f6e6c790000000000000000\n        /* \"#utility.yul\":6755:6756   */\n      0x00\n        /* \"#utility.yul\":6747:6753   */\n      dup3\n        /* \"#utility.yul\":6743:6757   */\n      add\n        /* \"#utility.yul\":6736:6786   */\n      mstore\n        /* \"#utility.yul\":6619:6793   */\n      pop\n      jump\t// out\n        /* \"#utility.yul\":6799:7165   */\n    tag_123:\n        /* \"#utility.yul\":6941:6944   */\n      0x00\n        /* \"#utility.yul\":6962:7029   */\n      tag_234\n        /* \"#utility.yul\":7026:7028   */\n      0x18\n        /* \"#utility.yul\":7021:7024   */\n      dup4\n        /* \"#utility.yul\":6962:7029   */\n      tag_121\n      jump\t// in\n    tag_234:\n        /* \"#utility.yul\":6955:7029   */\n      swap2\n      pop\n        /* \"#utility.yul\":7038:7131   */\n      tag_235\n        /* \"#utility.yul\":7127:7130   */\n      dup3\n        /* \"#utility.yul\":7038:7131   */\n      tag_122\n      jump\t// in\n    tag_235:\n        /* \"#utility.yul\":7156:7158   */\n      0x20\n        /* \"#utility.yul\":7151:7154   */\n      dup3\n        /* \"#utility.yul\":7147:7159   */\n      add\n        /* \"#utility.yul\":7140:7159   */\n      swap1\n      pop\n        /* \"#utility.yul\":6799:7165   */\n      swap2\n      swap1\n      pop\n      jump\t// out\n        /* \"#utility.yul\":7171:7590   */\n    tag_52:\n        /* \"#utility.yul\":7337:7341   */\n      0x00\n        /* \"#utility.yul\":7375:7377   */\n      0x20\n        /* \"#utility.yul\":7364:7373   */\n      dup3\n        /* \"#utility.yul\":7360:7378   */\n      add\n        /* \"#utility.yul\":7352:7378   */\n      swap1\n      pop\n        /* \"#utility.yul\":7424:7433   */\n      dup2\n        /* \"#utility.yul\":7418:7422   */\n      dup2\n        /* \"#utility.yul\":7414:7434   */\n      sub\n        /* \"#utility.yul\":7410:7411   */\n      0x00\n        /* \"#utility.yul\":7399:7408   */\n      dup4\n        /* \"#utility.yul\":7395:7412   */\n      add\n        /* \"#utility.yul\":7388:7435   */\n      mstore\n        /* \"#utility.yul\":7452:7583   */\n      tag_237\n        /* \"#utility.yul\":7578:7582   */\n      dup2\n        /* \"#utility.yul\":7452:7583   */\n      tag_123\n      jump\t// in\n    tag_237:\n        /* \"#utility.yul\":7444:7583   */\n      swap1\n      pop\n        /* \"#utility.yul\":7171:7590   */\n      swap2\n      swap1\n      pop\n      jump\t// out\n        /* \"#utility.yul\":7596:7772   */\n    tag_124:\n        /* \"#utility.yul\":7736:7764   */\n      0x5061796d656e7420746f6f206c6f7720666f7220616363657373000000000000\n        /* \"#utility.yul\":7732:7733   */\n      0x00\n        /* \"#utility.yul\":7724:7730   */\n      dup3\n        /* \"#utility.yul\":7720:7734   */\n      add\n        /* \"#utility.yul\":7713:7765   */\n      mstore\n        /* \"#utility.yul\":7596:7772   */\n      pop\n      jump\t// out\n        /* \"#utility.yul\":7778:8144   */\n    tag_125:\n        /* \"#utility.yul\":7920:7923   */\n      0x00\n        /* \"#utility.yul\":7941:8008   */\n      tag_240\n        /* \"#utility.yul\":8005:8007   */\n      0x1a\n        /* \"#utility.yul\":8000:8003   */\n      dup4\n        /* \"#utility.yul\":7941:8008   */\n      tag_121\n      jump\t// in\n    tag_240:\n        /* \"#utility.yul\":7934:8008   */\n      swap2\n      pop\n        /* \"#utility.yul\":8017:8110   */\n      tag_241\n        /* \"#utility.yul\":8106:8109   */\n      dup3\n        /* \"#utility.yul\":8017:8110   */\n      tag_124\n      jump\t// in\n    tag_241:\n        /* \"#utility.yul\":8135:8137   */\n      0x20\n        /* \"#utility.yul\":8130:8133   */\n      dup3\n        /* \"#utility.yul\":8126:8138   */\n      add\n        /* \"#utility.yul\":8119:8138   */\n      swap1\n      pop\n        /* \"#utility.yul\":7778:8144   */\n      swap2\n      swap1\n      pop\n      jump\t// out\n        /* \"#utility.yul\":8150:8569   */\n    tag_57:\n        /* \"#utility.yul\":8316:8320   */\n      0x00\n        /* \"#utility.yul\":8354:8356   */\n      0x20\n        /* \"#utility.yul\":8343:8352   */\n      dup3\n        /* \"#utility.yul\":8339:8357   */\n      add\n        /* \"#utility.yul\":8331:8357   */\n      swap1\n      pop\n        /* \"#utility.yul\":8403:8412   */\n      dup2\n        /* \"#utility.yul\":8397:8401   */\n      dup2\n        /* \"#utility.yul\":8393:8413   */\n      sub\n        /* \"#utility.yul\":8389:8390   */\n      0x00\n        /* \"#utility.yul\":8378:8387   */\n      dup4\n        /* \"#utility.yul\":8374:8391   */\n      add\n        /* \"#utility.yul\":8367:8414   */\n      mstore\n        /* \"#utility.yul\":8431:8562   */\n      tag_243\n        /* \"#utility.yul\":8557:8561   */\n      dup2\n        /* \"#utility.yul\":8431:8562   */\n      tag_125\n      jump\t// in\n    tag_243:\n        /* \"#utility.yul\":8423:8562   */\n      swap1\n      pop\n        /* \"#utility.yul\":8150:8569   */\n      swap2\n      swap1\n      pop\n      jump\t// out\n        /* \"#utility.yul\":8575:8754   */\n    tag_126:\n        /* \"#utility.yul\":8715:8746   */\n      0x546f6b656e20696e76616c6964206f7220616c72656164792075736564000000\n        /* \"#utility.yul\":8711:8712   */\n      0x00\n        /* \"#utility.yul\":8703:8709   */\n      dup3\n        /* \"#utility.yul\":8699:8713   */\n      add\n        /* \"#utility.yul\":8692:8747   */\n      mstore\n        /* \"#utility.yul\":8575:8754   */\n      pop\n      jump\t// out\n        /* \"#utility.yul\":8760:9126   */\n    tag_127:\n        /* \"#utility.yul\":8902:8905   */\n      0x00\n        /* \"#utility.yul\":8923:8990   */\n      tag_246\n        /* \"#utility.yul\":8987:8989   */\n      0x1d\n        /* \"#utility.yul\":8982:8985   */\n      dup4\n        /* \"#utility.yul\":8923:8990   */\n      tag_121\n      jump\t// in\n    tag_246:\n        /* \"#utility.yul\":8916:8990   */\n      swap2\n      pop\n        /* \"#utility.yul\":8999:9092   */\n      tag_247\n        /* \"#utility.yul\":9088:9091   */\n      dup3\n        /* \"#utility.yul\":8999:9092   */\n      tag_126\n      jump\t// in\n    tag_247:\n        /* \"#utility.yul\":9117:9119   */\n      0x20\n        /* \"#utility.yul\":9112:9115   */\n      dup3\n        /* \"#utility.yul\":9108:9120   */\n      add\n        /* \"#utility.yul\":9101:9120   */\n      swap1\n      pop\n        /* \"#utility.yul\":8760:9126   */\n      swap2\n      swap1\n      pop\n      jump\t// out\n        /* \"#utility.yul\":9132:9551   */\n    tag_60:\n        /* \"#utility.yul\":9298:9302   */\n      0x00\n        /* \"#utility.yul\":9336:9338   */\n      0x20\n        /* \"#utility.yul\":9325:9334   */\n      dup3\n        /* \"#utility.yul\":9321:9339   */\n      add\n        /* \"#utility.yul\":9313:9339   */\n      swap1\n      pop\n        /* \"#utility.yul\":9385:9394   */\n      dup2\n        /* \"#utility.yul\":9379:9383   */\n      dup2\n        /* \"#utility.yul\":9375:9395   */\n      sub\n        /* \"#utility.yul\":9371:9372   */\n      0x00\n        /* \"#utility.yul\":9360:9369   */\n      dup4\n        /* \"#utility.yul\":9356:9373   */\n      add\n        /* \"#utility.yul\":9349:9396   */\n      mstore\n        /* \"#utility.yul\":9413:9544   */\n      tag_249\n        /* \"#utility.yul\":9539:9543   */\n      dup2\n        /* \"#utility.yul\":9413:9544   */\n      tag_127\n      jump\t// in\n    tag_249:\n        /* \"#utility.yul\":9405:9544   */\n      swap1\n      pop\n        /* \"#utility.yul\":9132:9551   */\n      swap2\n      swap1\n      pop\n      jump\t// out\n        /* \"#utility.yul\":9557:9737   */\n    tag_128:\n        /* \"#utility.yul\":9605:9682   */\n      0x4e487b7100000000000000000000000000000000000000000000000000000000\n        /* \"#utility.yul\":9602:9603   */\n      0x00\n        /* \"#utility.yul\":9595:9683   */\n      mstore\n        /* \"#utility.yul\":9702:9706   */\n      0x22\n        /* \"#utility.yul\":9699:9700   */\n      0x04\n        /* \"#utility.yul\":9692:9707   */\n      mstore\n        /* \"#utility.yul\":9726:9730   */\n      0x24\n        /* \"#utility.yul\":9723:9724   */\n      0x00\n        /* \"#utility.yul\":9716:9731   */\n      revert\n        /* \"#utility.yul\":9743:10063   */\n    tag_62:\n        /* \"#utility.yul\":9787:9793   */\n      0x00\n        /* \"#utility.yul\":9824:9825   */\n      0x02\n        /* \"#utility.yul\":9818:9822   */\n      dup3\n        /* \"#utility.yul\":9814:9826   */\n      div\n        /* \"#utility.yul\":9804:9826   */\n      swap1\n      pop\n        /* \"#utility.yul\":9871:9872   */\n      0x01\n        /* \"#utility.yul\":9865:9869   */\n      dup3\n        /* \"#utility.yul\":9861:9873   */\n      and\n        /* \"#utility.yul\":9892:9910   */\n      dup1\n        /* \"#utility.yul\":9882:9963   */\n      tag_252\n      jumpi\n        /* \"#utility.yul\":9948:9952   */\n      0x7f\n        /* \"#utility.yul\":9940:9946   */\n      dup3\n        /* \"#utility.yul\":9936:9953   */\n      and\n        /* \"#utility.yul\":9926:9953   */\n      swap2\n      pop\n        /* \"#utility.yul\":9882:9963   */\n    tag_252:\n        /* \"#utility.yul\":10010:10012   */\n      0x20\n        /* \"#utility.yul\":10002:10008   */\n      dup3\n        /* \"#utility.yul\":9999:10013   */\n      lt\n        /* \"#utility.yul\":9979:9997   */\n      dup2\n        /* \"#utility.yul\":9976:10014   */\n      sub\n        /* \"#utility.yul\":9973:10057   */\n      tag_253\n      jumpi\n        /* \"#utility.yul\":10029:10047   */\n      tag_254\n      tag_128\n      jump\t// in\n    tag_254:\n        /* \"#utility.yul\":9973:10057   */\n    tag_253:\n        /* \"#utility.yul\":9794:10063   */\n      pop\n        /* \"#utility.yul\":9743:10063   */\n      swap2\n      swap1\n      pop\n      jump\t// out\n        /* \"#utility.yul\":10069:10216   */\n    tag_129:\n        /* \"#utility.yul\":10170:10181   */\n      0x00\n        /* \"#utility.yul\":10207:10210   */\n      dup2\n        /* \"#utility.yul\":10192:10210   */\n      swap1\n      pop\n        /* \"#utility.yul\":10069:10216   */\n      swap3\n      swap2\n      pop\n      pop\n      jump\t// out\n        /* \"#utility.yul\":10222:10608   */\n    tag_130:\n        /* \"#utility.yul\":10326:10329   */\n      0x00\n        /* \"#utility.yul\":10354:10392   */\n      tag_257\n        /* \"#utility.yul\":10386:10391   */\n      dup3\n        /* \"#utility.yul\":10354:10392   */\n      tag_101\n      jump\t// in\n    tag_257:\n        /* \"#utility.yul\":10408:10496   */\n      tag_258\n        /* \"#utility.yul\":10489:10495   */\n      dup2\n        /* \"#utility.yul\":10484:10487   */\n      dup6\n        /* \"#utility.yul\":10408:10496   */\n      tag_129\n      jump\t// in\n    tag_258:\n        /* \"#utility.yul\":10401:10496   */\n      swap4\n      pop\n        /* \"#utility.yul\":10505:10570   */\n      tag_259\n        /* \"#utility.yul\":10563:10569   */\n      dup2\n        /* \"#utility.yul\":10558:10561   */\n      dup6\n        /* \"#utility.yul\":10551:10555   */\n      0x20\n        /* \"#utility.yul\":10544:10549   */\n      dup7\n        /* \"#utility.yul\":10540:10556   */\n      add\n        /* \"#utility.yul\":10505:10570   */\n      tag_103\n      jump\t// in\n    tag_259:\n        /* \"#utility.yul\":10595:10601   */\n      dup1\n        /* \"#utility.yul\":10590:10593   */\n      dup5\n        /* \"#utility.yul\":10586:10602   */\n      add\n        /* \"#utility.yul\":10579:10602   */\n      swap2\n      pop\n        /* \"#utility.yul\":10330:10608   */\n      pop\n        /* \"#utility.yul\":10222:10608   */\n      swap3\n      swap2\n      pop\n      pop\n      jump\t// out\n        /* \"#utility.yul\":10614:10693   */\n    tag_131:\n        /* \"#utility.yul\":10653:10660   */\n      0x00\n        /* \"#utility.yul\":10682:10687   */\n      dup2\n        /* \"#utility.yul\":10671:10687   */\n      swap1\n      pop\n        /* \"#utility.yul\":10614:10693   */\n      swap2\n      swap1\n      pop\n      jump\t// out\n        /* \"#utility.yul\":10699:10856   */\n    tag_132:\n        /* \"#utility.yul\":10804:10849   */\n      tag_262\n        /* \"#utility.yul\":10824:10848   */\n      tag_263\n        /* \"#utility.yul\":10842:10847   */\n      dup3\n        /* \"#utility.yul\":10824:10848   */\n      tag_98\n      jump\t// in\n    tag_263:\n        /* \"#utility.yul\":10804:10849   */\n      tag_131\n      jump\t// in\n    tag_262:\n        /* \"#utility.yul\":10799:10802   */\n      dup3\n        /* \"#utility.yul\":10792:10850   */\n      mstore\n        /* \"#utility.yul\":10699:10856   */\n      pop\n      pop\n      jump\t// out\n        /* \"#utility.yul\":10862:10958   */\n    tag_133:\n        /* \"#utility.yul\":10899:10906   */\n      0x00\n        /* \"#utility.yul\":10928:10952   */\n      tag_265\n        /* \"#utility.yul\":10946:10951   */\n      dup3\n        /* \"#utility.yul\":10928:10952   */\n      tag_109\n      jump\t// in\n    tag_265:\n        /* \"#utility.yul\":10917:10952   */\n      swap1\n      pop\n        /* \"#utility.yul\":10862:10958   */\n      swap2\n      swap1\n      pop\n      jump\t// out\n        /* \"#utility.yul\":10964:11058   */\n    tag_134:\n        /* \"#utility.yul\":10997:11005   */\n      0x00\n        /* \"#utility.yul\":11045:11050   */\n      dup2\n        /* \"#utility.yul\":11041:11043   */\n      0x60\n        /* \"#utility.yul\":11037:11051   */\n      shl\n        /* \"#utility.yul\":11016:11051   */\n      swap1\n      pop\n        /* \"#utility.yul\":10964:11058   */\n      swap2\n      swap1\n      pop\n      jump\t// out\n        /* \"#utility.yul\":11064:11158   */\n    tag_135:\n        /* \"#utility.yul\":11103:11110   */\n      0x00\n        /* \"#utility.yul\":11132:11152   */\n      tag_268\n        /* \"#utility.yul\":11146:11151   */\n      dup3\n        /* \"#utility.yul\":11132:11152   */\n      tag_134\n      jump\t// in\n    tag_268:\n        /* \"#utility.yul\":11121:11152   */\n      swap1\n      pop\n        /* \"#utility.yul\":11064:11158   */\n      swap2\n      swap1\n      pop\n      jump\t// out\n        /* \"#utility.yul\":11164:11264   */\n    tag_136:\n        /* \"#utility.yul\":11203:11210   */\n      0x00\n        /* \"#utility.yul\":11232:11258   */\n      tag_270\n        /* \"#utility.yul\":11252:11257   */\n      dup3\n        /* \"#utility.yul\":11232:11258   */\n      tag_135\n      jump\t// in\n    tag_270:\n        /* \"#utility.yul\":11221:11258   */\n      swap1\n      pop\n        /* \"#utility.yul\":11164:11264   */\n      swap2\n      swap1\n      pop\n      jump\t// out\n        /* \"#utility.yul\":11270:11427   */\n    tag_137:\n        /* \"#utility.yul\":11375:11420   */\n      tag_272\n        /* \"#utility.yul\":11395:11419   */\n      tag_273\n        /* \"#utility.yul\":11413:11418   */\n      dup3\n        /* \"#utility.yul\":11395:11419   */\n      tag_133\n      jump\t// in\n    tag_273:\n        /* \"#utility.yul\":11375:11420   */\n      tag_136\n      jump\t// in\n    tag_272:\n        /* \"#utility.yul\":11370:11373   */\n      dup3\n        /* \"#utility.yul\":11363:11421   */\n      mstore\n        /* \"#utility.yul\":11270:11427   */\n      pop\n      pop\n      jump\t// out\n        /* \"#utility.yul\":11433:11986   */\n    tag_76:\n        /* \"#utility.yul\":11619:11622   */\n      0x00\n        /* \"#utility.yul\":11641:11734   */\n      tag_275\n        /* \"#utility.yul\":11730:11733   */\n      dup3\n        /* \"#utility.yul\":11721:11727   */\n      dup7\n        /* \"#utility.yul\":11641:11734   */\n      tag_130\n      jump\t// in\n    tag_275:\n        /* \"#utility.yul\":11634:11734   */\n      swap2\n      pop\n        /* \"#utility.yul\":11744:11819   */\n      tag_276\n        /* \"#utility.yul\":11815:11818   */\n      dup3\n        /* \"#utility.yul\":11806:11812   */\n      dup6\n        /* \"#utility.yul\":11744:11819   */\n      tag_132\n      jump\t// in\n    tag_276:\n        /* \"#utility.yul\":11844:11846   */\n      0x20\n        /* \"#utility.yul\":11839:11842   */\n      dup3\n        /* \"#utility.yul\":11835:11847   */\n      add\n        /* \"#utility.yul\":11828:11847   */\n      swap2\n      pop\n        /* \"#utility.yul\":11857:11932   */\n      tag_277\n        /* \"#utility.yul\":11928:11931   */\n      dup3\n        /* \"#utility.yul\":11919:11925   */\n      dup5\n        /* \"#utility.yul\":11857:11932   */\n      tag_137\n      jump\t// in\n    tag_277:\n        /* \"#utility.yul\":11957:11959   */\n      0x14\n        /* \"#utility.yul\":11952:11955   */\n      dup3\n        /* \"#utility.yul\":11948:11960   */\n      add\n        /* \"#utility.yul\":11941:11960   */\n      swap2\n      pop\n        /* \"#utility.yul\":11977:11980   */\n      dup2\n        /* \"#utility.yul\":11970:11980   */\n      swap1\n      pop\n        /* \"#utility.yul\":11433:11986   */\n      swap5\n      swap4\n      pop\n      pop\n      pop\n      pop\n      jump\t// out\n        /* \"#utility.yul\":11992:12069   */\n    tag_138:\n        /* \"#utility.yul\":12029:12036   */\n      0x00\n        /* \"#utility.yul\":12058:12063   */\n      dup2\n        /* \"#utility.yul\":12047:12063   */\n      swap1\n      pop\n        /* \"#utility.yul\":11992:12069   */\n      swap2\n      swap1\n      pop\n      jump\t// out\n        /* \"#utility.yul\":12075:12154   */\n    tag_139:\n        /* \"#utility.yul\":12114:12121   */\n      0x00\n        /* \"#utility.yul\":12143:12148   */\n      dup2\n        /* \"#utility.yul\":12132:12148   */\n      swap1\n      pop\n        /* \"#utility.yul\":12075:12154   */\n      swap2\n      swap1\n      pop\n      jump\t// out\n        /* \"#utility.yul\":12160:12317   */\n    tag_140:\n        /* \"#utility.yul\":12265:12310   */\n      tag_281\n        /* \"#utility.yul\":12285:12309   */\n      tag_282\n        /* \"#utility.yul\":12303:12308   */\n      dup3\n        /* \"#utility.yul\":12285:12309   */\n      tag_138\n      jump\t// in\n    tag_282:\n        /* \"#utility.yul\":12265:12310   */\n      tag_139\n      jump\t// in\n    tag_281:\n        /* \"#utility.yul\":12260:12263   */\n      dup3\n        /* \"#utility.yul\":12253:12311   */\n      mstore\n        /* \"#utility.yul\":12160:12317   */\n      pop\n      pop\n      jump\t// out\n        /* \"#utility.yul\":12323:12720   */\n    tag_81:\n        /* \"#utility.yul\":12463:12466   */\n      0x00\n        /* \"#utility.yul\":12478:12553   */\n      tag_284\n        /* \"#utility.yul\":12549:12552   */\n      dup3\n        /* \"#utility.yul\":12540:12546   */\n      dup6\n        /* \"#utility.yul\":12478:12553   */\n      tag_140\n      jump\t// in\n    tag_284:\n        /* \"#utility.yul\":12578:12580   */\n      0x20\n        /* \"#utility.yul\":12573:12576   */\n      dup3\n        /* \"#utility.yul\":12569:12581   */\n      add\n        /* \"#utility.yul\":12562:12581   */\n      swap2\n      pop\n        /* \"#utility.yul\":12591:12666   */\n      tag_285\n        /* \"#utility.yul\":12662:12665   */\n      dup3\n        /* \"#utility.yul\":12653:12659   */\n      dup5\n        /* \"#utility.yul\":12591:12666   */\n      tag_132\n      jump\t// in\n    tag_285:\n        /* \"#utility.yul\":12691:12693   */\n      0x20\n        /* \"#utility.yul\":12686:12689   */\n      dup3\n        /* \"#utility.yul\":12682:12694   */\n      add\n        /* \"#utility.yul\":12675:12694   */\n      swap2\n      pop\n        /* \"#utility.yul\":12711:12714   */\n      dup2\n        /* \"#utility.yul\":12704:12714   */\n      swap1\n      pop\n        /* \"#utility.yul\":12323:12720   */\n      swap4\n      swap3\n      pop\n      pop\n      pop\n      jump\t// out\n        /* \"#utility.yul\":12726:12906   */\n    tag_141:\n        /* \"#utility.yul\":12774:12851   */\n      0x4e487b7100000000000000000000000000000000000000000000000000000000\n        /* \"#utility.yul\":12771:12772   */\n      0x00\n        /* \"#utility.yul\":12764:12852   */\n      mstore\n        /* \"#utility.yul\":12871:12875   */\n      0x12\n        /* \"#utility.yul\":12868:12869   */\n      0x04\n        /* \"#utility.yul\":12861:12876   */\n      mstore\n        /* \"#utility.yul\":12895:12899   */\n      0x24\n        /* \"#utility.yul\":12892:12893   */\n      0x00\n        /* \"#utility.yul\":12885:12900   */\n      revert\n        /* \"#utility.yul\":12912:13088   */\n    tag_83:\n        /* \"#utility.yul\":12944:12945   */\n      0x00\n        /* \"#utility.yul\":12961:12981   */\n      tag_288\n        /* \"#utility.yul\":12979:12980   */\n      dup3\n        /* \"#utility.yul\":12961:12981   */\n      tag_98\n      jump\t// in\n    tag_288:\n        /* \"#utility.yul\":12956:12981   */\n      swap2\n      pop\n        /* \"#utility.yul\":12995:13015   */\n      tag_289\n        /* \"#utility.yul\":13013:13014   */\n      dup4\n        /* \"#utility.yul\":12995:13015   */\n      tag_98\n      jump\t// in\n    tag_289:\n        /* \"#utility.yul\":12990:13015   */\n      swap3\n      pop\n        /* \"#utility.yul\":13034:13035   */\n      dup3\n        /* \"#utility.yul\":13024:13059   */\n      tag_290\n      jumpi\n        /* \"#utility.yul\":13039:13057   */\n      tag_291\n      tag_141\n      jump\t// in\n    tag_291:\n        /* \"#utility.yul\":13024:13059   */\n    tag_290:\n        /* \"#utility.yul\":13080:13081   */\n      dup3\n        /* \"#utility.yul\":13077:13078   */\n      dup3\n        /* \"#utility.yul\":13073:13082   */\n      mod\n        /* \"#utility.yul\":13068:13082   */\n      swap1\n      pop\n        /* \"#utility.yul\":12912:13088   */\n      swap3\n      swap2\n      pop\n      pop\n      jump\t// out\n        /* \"#utility.yul\":13094:13274   */\n    tag_142:\n        /* \"#utility.yul\":13142:13219   */\n      0x4e487b7100000000000000000000000000000000000000000000000000000000\n        /* \"#utility.yul\":13139:13140   */\n      0x00\n        /* \"#utility.yul\":13132:13220   */\n      mstore\n        /* \"#utility.yul\":13239:13243   */\n      0x11\n        /* \"#utility.yul\":13236:13237   */\n      0x04\n        /* \"#utility.yul\":13229:13244   */\n      mstore\n        /* \"#utility.yul\":13263:13267   */\n      0x24\n        /* \"#utility.yul\":13260:13261   */\n      0x00\n        /* \"#utility.yul\":13253:13268   */\n      revert\n        /* \"#utility.yul\":13280:13471   */\n    tag_85:\n        /* \"#utility.yul\":13320:13323   */\n      0x00\n        /* \"#utility.yul\":13339:13359   */\n      tag_294\n        /* \"#utility.yul\":13357:13358   */\n      dup3\n        /* \"#utility.yul\":13339:13359   */\n      tag_98\n      jump\t// in\n    tag_294:\n        /* \"#utility.yul\":13334:13359   */\n      swap2\n      pop\n        /* \"#utility.yul\":13373:13393   */\n      tag_295\n        /* \"#utility.yul\":13391:13392   */\n      dup4\n        /* \"#utility.yul\":13373:13393   */\n      tag_98\n      jump\t// in\n    tag_295:\n        /* \"#utility.yul\":13368:13393   */\n      swap3\n      pop\n        /* \"#utility.yul\":13416:13417   */\n      dup3\n        /* \"#utility.yul\":13413:13414   */\n      dup3\n        /* \"#utility.yul\":13409:13418   */\n      add\n        /* \"#utility.yul\":13402:13418   */\n      swap1\n      pop\n        /* \"#utility.yul\":13437:13440   */\n      dup1\n        /* \"#utility.yul\":13434:13435   */\n      dup3\n        /* \"#utility.yul\":13431:13441   */\n      gt\n        /* \"#utility.yul\":13428:13464   */\n      iszero\n      tag_296\n      jumpi\n        /* \"#utility.yul\":13444:13462   */\n      tag_297\n      tag_142\n      jump\t// in\n    tag_297:\n        /* \"#utility.yul\":13428:13464   */\n    tag_296:\n        /* \"#utility.yul\":13280:13471   */\n      swap3\n      swap2\n      pop\n      pop\n      jump\t// out\n        /* \"#utility.yul\":13477:13617   */\n    tag_143:\n        /* \"#utility.yul\":13525:13529   */\n      0x00\n        /* \"#utility.yul\":13548:13551   */\n      dup2\n        /* \"#utility.yul\":13540:13551   */\n      swap1\n      pop\n        /* \"#utility.yul\":13571:13574   */\n      dup2\n        /* \"#utility.yul\":13568:13569   */\n      0x00\n        /* \"#utility.yul\":13561:13575   */\n      mstore\n        /* \"#utility.yul\":13605:13609   */\n      0x20\n        /* \"#utility.yul\":13602:13603   */\n      0x00\n        /* \"#utility.yul\":13592:13610   */\n      keccak256\n        /* \"#utility.yul\":13584:13610   */\n      swap1\n      pop\n        /* \"#utility.yul\":13477:13617   */\n      swap2\n      swap1\n      pop\n      jump\t// out\n        /* \"#utility.yul\":13623:13716   */\n    tag_144:\n        /* \"#utility.yul\":13660:13666   */\n      0x00\n        /* \"#utility.yul\":13707:13709   */\n      0x20\n        /* \"#utility.yul\":13702:13704   */\n      0x1f\n        /* \"#utility.yul\":13695:13700   */\n      dup4\n        /* \"#utility.yul\":13691:13705   */\n      add\n        /* \"#utility.yul\":13687:13710   */\n      div\n        /* \"#utility.yul\":13677:13710   */\n      swap1\n      pop\n        /* \"#utility.yul\":13623:13716   */\n      swap2\n      swap1\n      pop\n      jump\t// out\n        /* \"#utility.yul\":13722:13829   */\n    tag_145:\n        /* \"#utility.yul\":13766:13774   */\n      0x00\n        /* \"#utility.yul\":13816:13821   */\n      dup3\n        /* \"#utility.yul\":13810:13814   */\n      dup3\n        /* \"#utility.yul\":13806:13822   */\n      shl\n        /* \"#utility.yul\":13785:13822   */\n      swap1\n      pop\n        /* \"#utility.yul\":13722:13829   */\n      swap3\n      swap2\n      pop\n      pop\n      jump\t// out\n        /* \"#utility.yul\":13835:14228   */\n    tag_146:\n        /* \"#utility.yul\":13904:13910   */\n      0x00\n        /* \"#utility.yul\":13954:13955   */\n      0x08\n        /* \"#utility.yul\":13942:13952   */\n      dup4\n        /* \"#utility.yul\":13938:13956   */\n      mul\n        /* \"#utility.yul\":13977:14074   */\n      tag_302\n        /* \"#utility.yul\":14007:14073   */\n      0xffffffffffffffffffffffffffffffffffffffffffffffffffffffffffffffff\n        /* \"#utility.yul\":13996:14005   */\n      dup3\n        /* \"#utility.yul\":13977:14074   */\n      tag_145\n      jump\t// in\n    tag_302:\n        /* \"#utility.yul\":14095:14134   */\n      tag_303\n        /* \"#utility.yul\":14125:14133   */\n      dup7\n        /* \"#utility.yul\":14114:14123   */\n      dup4\n        /* \"#utility.yul\":14095:14134   */\n      tag_145\n      jump\t// in\n    tag_303:\n        /* \"#utility.yul\":14083:14134   */\n      swap6\n      pop\n        /* \"#utility.yul\":14167:14171   */\n      dup1\n        /* \"#utility.yul\":14163:14172   */\n      not\n        /* \"#utility.yul\":14156:14161   */\n      dup5\n        /* \"#utility.yul\":14152:14173   */\n      and\n        /* \"#utility.yul\":14143:14173   */\n      swap4\n      pop\n        /* \"#utility.yul\":14216:14220   */\n      dup1\n        /* \"#utility.yul\":14206:14214   */\n      dup7\n        /* \"#utility.yul\":14202:14221   */\n      and\n        /* \"#utility.yul\":14195:14200   */\n      dup5\n        /* \"#utility.yul\":14192:14222   */\n      or\n        /* \"#utility.yul\":14182:14222   */\n      swap3\n      pop\n        /* \"#utility.yul\":13911:14228   */\n      pop\n      pop\n        /* \"#utility.yul\":13835:14228   */\n      swap4\n      swap3\n      pop\n      pop\n      pop\n      jump\t// out\n        /* \"#utility.yul\":14234:14294   */\n    tag_147:\n        /* \"#utility.yul\":14262:14265   */\n      0x00\n        /* \"#utility.yul\":14283:14288   */\n      dup2\n        /* \"#utility.yul\":14276:14288   */\n      swap1\n      pop\n        /* \"#utility.yul\":14234:14294   */\n      swap2\n      swap1\n      pop\n      jump\t// out\n        /* \"#utility.yul\":14300:14442   */\n    tag_148:\n        /* \"#utility.yul\":14350:14359   */\n      0x00\n        /* \"#utility.yul\":14383:14436   */\n      tag_306\n        /* \"#utility.yul\":14401:14435   */\n      tag_307\n        /* \"#utility.yul\":14410:14434   */\n      tag_308\n        /* \"#utility.yul\":14428:14433   */\n      dup5\n        /* \"#utility.yul\":14410:14434   */\n      tag_98\n      jump\t// in\n    tag_308:\n        /* \"#utility.yul\":14401:14435   */\n      tag_147\n      jump\t// in\n    tag_307:\n        /* \"#utility.yul\":14383:14436   */\n      tag_98\n      jump\t// in\n    tag_306:\n        /* \"#utility.yul\":14370:14436   */\n      swap1\n      pop\n        /* \"#utility.yul\":14300:14442   */\n      swap2\n      swap1\n      pop\n      jump\t// out\n        /* \"#utility.yul\":14448:14523   */\n    tag_149:\n        /* \"#utility.yul\":14491:14494   */\n      0x00\n        /* \"#utility.yul\":14512:14517   */\n      dup2\n        /* \"#utility.yul\":14505:14517   */\n      swap1\n      pop\n        /* \"#utility.yul\":14448:14523   */\n      swap2\n      swap1\n      pop\n      jump\t// out\n        /* \"#utility.yul\":14529:14798   */\n    tag_150:\n        /* \"#utility.yul\":14639:14678   */\n      tag_311\n        /* \"#utility.yul\":14670:14677   */\n      dup4\n        /* \"#utility.yul\":14639:14678   */\n      tag_148\n      jump\t// in\n    tag_311:\n        /* \"#utility.yul\":14700:14791   */\n      tag_312\n        /* \"#utility.yul\":14749:14790   */\n      tag_313\n        /* \"#utility.yul\":14773:14789   */\n      dup3\n        /* \"#utility.yul\":14749:14790   */\n      tag_149\n      jump\t// in\n    tag_313:\n        /* \"#utility.yul\":14741:14747   */\n      dup5\n        /* \"#utility.yul\":14734:14738   */\n      dup5\n        /* \"#utility.yul\":14728:14739   */\n      sload\n        /* \"#utility.yul\":14700:14791   */\n      tag_146\n      jump\t// in\n    tag_312:\n        /* \"#utility.yul\":14694:14698   */\n      dup3\n        /* \"#utility.yul\":14687:14792   */\n      sstore\n        /* \"#utility.yul\":14605:14798   */\n      pop\n        /* \"#utility.yul\":14529:14798   */\n      pop\n      pop\n      pop\n      jump\t// out\n        /* \"#utility.yul\":14804:14877   */\n    tag_151:\n        /* \"#utility.yul\":14849:14852   */\n      0x00\n        /* \"#utility.yul\":14870:14871   */\n      0x00\n        /* \"#utility.yul\":14863:14871   */\n      swap1\n      pop\n        /* \"#utility.yul\":14804:14877   */\n      swap1\n      jump\t// out\n        /* \"#utility.yul\":14883:15072   */\n    tag_152:\n        /* \"#utility.yul\":14960:14992   */\n      tag_316\n      tag_151\n      jump\t// in\n    tag_316:\n        /* \"#utility.yul\":15001:15066   */\n      tag_317\n        /* \"#utility.yul\":15059:15065   */\n      dup2\n        /* \"#utility.yul\":15051:15057   */\n      dup5\n        /* \"#utility.yul\":15045:15049   */\n      dup5\n        /* \"#utility.yul\":15001:15066   */\n      tag_150\n      jump\t// in\n    tag_317:\n        /* \"#utility.yul\":14936:15072   */\n      pop\n        /* \"#utility.yul\":14883:15072   */\n      pop\n      pop\n      jump\t// out\n        /* \"#utility.yul\":15078:15264   */\n    tag_153:\n        /* \"#utility.yul\":15138:15258   */\n    tag_319:\n        /* \"#utility.yul\":15155:15158   */\n      dup2\n        /* \"#utility.yul\":15148:15153   */\n      dup2\n        /* \"#utility.yul\":15145:15159   */\n      lt\n        /* \"#utility.yul\":15138:15258   */\n      iszero\n      tag_321\n      jumpi\n        /* \"#utility.yul\":15209:15248   */\n      tag_322\n        /* \"#utility.yul\":15246:15247   */\n      0x00\n        /* \"#utility.yul\":15239:15244   */\n      dup3\n        /* \"#utility.yul\":15209:15248   */\n      tag_152\n      jump\t// in\n    tag_322:\n        /* \"#utility.yul\":15182:15183   */\n      0x01\n        /* \"#utility.yul\":15175:15180   */\n      dup2\n        /* \"#utility.yul\":15171:15184   */\n      add\n        /* \"#utility.yul\":15162:15184   */\n      swap1\n      pop\n        /* \"#utility.yul\":15138:15258   */\n      jump(tag_319)\n    tag_321:\n        /* \"#utility.yul\":15078:15264   */\n      pop\n      pop\n      jump\t// out\n        /* \"#utility.yul\":15270:15811   */\n    tag_154:\n        /* \"#utility.yul\":15370:15372   */\n      0x1f\n        /* \"#utility.yul\":15365:15368   */\n      dup3\n        /* \"#utility.yul\":15362:15373   */\n      gt\n        /* \"#utility.yul\":15359:15804   */\n      iszero\n      tag_324\n      jumpi\n        /* \"#utility.yul\":15404:15441   */\n      tag_325\n        /* \"#utility.yul\":15435:15440   */\n      dup2\n        /* \"#utility.yul\":15404:15441   */\n      tag_143\n      jump\t// in\n    tag_325:\n        /* \"#utility.yul\":15487:15516   */\n      tag_326\n        /* \"#utility.yul\":15505:15515   */\n      dup5\n        /* \"#utility.yul\":15487:15516   */\n      tag_144\n      jump\t// in\n    tag_326:\n        /* \"#utility.yul\":15477:15485   */\n      dup2\n        /* \"#utility.yul\":15473:15517   */\n      add\n        /* \"#utility.yul\":15670:15672   */\n      0x20\n        /* \"#utility.yul\":15658:15668   */\n      dup6\n        /* \"#utility.yul\":15655:15673   */\n      lt\n        /* \"#utility.yul\":15652:15701   */\n      iszero\n      tag_327\n      jumpi\n        /* \"#utility.yul\":15691:15699   */\n      dup2\n        /* \"#utility.yul\":15676:15699   */\n      swap1\n      pop\n        /* \"#utility.yul\":15652:15701   */\n    tag_327:\n        /* \"#utility.yul\":15714:15794   */\n      tag_328\n        /* \"#utility.yul\":15770:15792   */\n      tag_329\n        /* \"#utility.yul\":15788:15791   */\n      dup6\n        /* \"#utility.yul\":15770:15792   */\n      tag_144\n      jump\t// in\n    tag_329:\n        /* \"#utility.yul\":15760:15768   */\n      dup4\n        /* \"#utility.yul\":15756:15793   */\n      add\n        /* \"#utility.yul\":15743:15754   */\n      dup3\n        /* \"#utility.yul\":15714:15794   */\n      tag_153\n      jump\t// in\n    tag_328:\n        /* \"#utility.yul\":15374:15804   */\n      pop\n      pop\n        /* \"#utility.yul\":15359:15804   */\n    tag_324:\n        /* \"#utility.yul\":15270:15811   */\n      pop\n      pop\n      pop\n      jump\t// out\n        /* \"#utility.yul\":15817:15934   */\n    tag_155:\n        /* \"#utility.yul\":15871:15879   */\n      0x00\n        /* \"#utility.yul\":15921:15926   */\n      dup3\n        /* \"#utility.yul\":15915:15919   */\n      dup3\n        /* \"#utility.yul\":15911:15927   */\n      shr\n        /* \"#utility.yul\":15890:15927   */\n      swap1\n      pop\n        /* \"#utility.yul\":15817:15934   */\n      swap3\n      swap2\n      pop\n      pop\n      jump\t// out\n        /* \"#utility.yul\":15940:16109   */\n    tag_156:\n        /* \"#utility.yul\":15984:15990   */\n      0x00\n        /* \"#utility.yul\":16017:16068   */\n      tag_332\n        /* \"#utility.yul\":16065:16066   */\n      0x00\n        /* \"#utility.yul\":16061:16067   */\n      not\n        /* \"#utility.yul\":16053:16058   */\n      dup5\n        /* \"#utility.yul\":16050:16051   */\n      0x08\n        /* \"#utility.yul\":16046:16059   */\n      mul\n        /* \"#utility.yul\":16017:16068   */\n      tag_155\n      jump\t// in\n    tag_332:\n        /* \"#utility.yul\":16013:16069   */\n      not\n        /* \"#utility.yul\":16098:16102   */\n      dup1\n        /* \"#utility.yul\":16092:16096   */\n      dup4\n        /* \"#utility.yul\":16088:16103   */\n      and\n        /* \"#utility.yul\":16078:16103   */\n      swap2\n      pop\n        /* \"#utility.yul\":15991:16109   */\n      pop\n        /* \"#utility.yul\":15940:16109   */\n      swap3\n      swap2\n      pop\n      pop\n      jump\t// out\n        /* \"#utility.yul\":16114:16409   */\n    tag_157:\n        /* \"#utility.yul\":16190:16194   */\n      0x00\n        /* \"#utility.yul\":16336:16365   */\n      tag_334\n        /* \"#utility.yul\":16361:16364   */\n      dup4\n        /* \"#utility.yul\":16355:16359   */\n      dup4\n        /* \"#utility.yul\":16336:16365   */\n      tag_156\n      jump\t// in\n    tag_334:\n        /* \"#utility.yul\":16328:16365   */\n      swap2\n      pop\n        /* \"#utility.yul\":16398:16401   */\n      dup3\n        /* \"#utility.yul\":16395:16396   */\n      0x02\n        /* \"#utility.yul\":16391:16402   */\n      mul\n        /* \"#utility.yul\":16385:16389   */\n      dup3\n        /* \"#utility.yul\":16382:16403   */\n      or\n        /* \"#utility.yul\":16374:16403   */\n      swap1\n      pop\n        /* \"#utility.yul\":16114:16409   */\n      swap3\n      swap2\n      pop\n      pop\n      jump\t// out\n        /* \"#utility.yul\":16414:17804   */\n    tag_87:\n        /* \"#utility.yul\":16529:16565   */\n      tag_336\n        /* \"#utility.yul\":16561:16564   */\n      dup3\n        /* \"#utility.yul\":16529:16565   */\n      tag_101\n      jump\t// in\n    tag_336:\n        /* \"#utility.yul\":16630:16648   */\n      0xffffffffffffffff\n        /* \"#utility.yul\":16622:16628   */\n      dup2\n        /* \"#utility.yul\":16619:16649   */\n      gt\n        /* \"#utility.yul\":16616:16672   */\n      iszero\n      tag_337\n      jumpi\n        /* \"#utility.yul\":16652:16670   */\n      tag_338\n      tag_114\n      jump\t// in\n    tag_338:\n        /* \"#utility.yul\":16616:16672   */\n    tag_337:\n        /* \"#utility.yul\":16696:16734   */\n      tag_339\n        /* \"#utility.yul\":16728:16732   */\n      dup3\n        /* \"#utility.yul\":16722:16733   */\n      sload\n        /* \"#utility.yul\":16696:16734   */\n      tag_62\n      jump\t// in\n    tag_339:\n        /* \"#utility.yul\":16781:16847   */\n      tag_340\n        /* \"#utility.yul\":16840:16846   */\n      dup3\n        /* \"#utility.yul\":16832:16838   */\n      dup3\n        /* \"#utility.yul\":16826:16830   */\n      dup6\n        /* \"#utility.yul\":16781:16847   */\n      tag_154\n      jump\t// in\n    tag_340:\n        /* \"#utility.yul\":16874:16875   */\n      0x00\n        /* \"#utility.yul\":16898:16902   */\n      0x20\n        /* \"#utility.yul\":16885:16902   */\n      swap1\n      pop\n        /* \"#utility.yul\":16930:16932   */\n      0x1f\n        /* \"#utility.yul\":16922:16928   */\n      dup4\n        /* \"#utility.yul\":16919:16933   */\n      gt\n        /* \"#utility.yul\":16947:16948   */\n      0x01\n        /* \"#utility.yul\":16942:17559   */\n      dup2\n      eq\n      tag_342\n      jumpi\n        /* \"#utility.yul\":17603:17604   */\n      0x00\n        /* \"#utility.yul\":17620:17626   */\n      dup5\n        /* \"#utility.yul\":17617:17694   */\n      iszero\n      tag_343\n      jumpi\n        /* \"#utility.yul\":17669:17678   */\n      dup3\n        /* \"#utility.yul\":17664:17667   */\n      dup8\n        /* \"#utility.yul\":17660:17679   */\n      add\n        /* \"#utility.yul\":17654:17680   */\n      mload\n        /* \"#utility.yul\":17645:17680   */\n      swap1\n      pop\n        /* \"#utility.yul\":17617:17694   */\n    tag_343:\n        /* \"#utility.yul\":17720:17787   */\n      tag_344\n        /* \"#utility.yul\":17780:17786   */\n      dup6\n        /* \"#utility.yul\":17773:17778   */\n      dup3\n        /* \"#utility.yul\":17720:17787   */\n      tag_157\n      jump\t// in\n    tag_344:\n        /* \"#utility.yul\":17714:17718   */\n      dup7\n        /* \"#utility.yul\":17707:17788   */\n      sstore\n        /* \"#utility.yul\":17576:17798   */\n      pop\n        /* \"#utility.yul\":16912:17798   */\n      jump(tag_341)\n        /* \"#utility.yul\":16942:17559   */\n    tag_342:\n        /* \"#utility.yul\":16994:16998   */\n      0x1f\n        /* \"#utility.yul\":16990:16999   */\n      not\n        /* \"#utility.yul\":16982:16988   */\n      dup5\n        /* \"#utility.yul\":16978:17000   */\n      and\n        /* \"#utility.yul\":17028:17064   */\n      tag_345\n        /* \"#utility.yul\":17059:17063   */\n      dup7\n        /* \"#utility.yul\":17028:17064   */\n      tag_143\n      jump\t// in\n    tag_345:\n        /* \"#utility.yul\":17086:17087   */\n      0x00\n        /* \"#utility.yul\":17100:17308   */\n    tag_346:\n        /* \"#utility.yul\":17114:17121   */\n      dup3\n        /* \"#utility.yul\":17111:17112   */\n      dup2\n        /* \"#utility.yul\":17108:17122   */\n      lt\n        /* \"#utility.yul\":17100:17308   */\n      iszero\n      tag_348\n      jumpi\n        /* \"#utility.yul\":17193:17202   */\n      dup5\n        /* \"#utility.yul\":17188:17191   */\n      dup10\n        /* \"#utility.yul\":17184:17203   */\n      add\n        /* \"#utility.yul\":17178:17204   */\n      mload\n        /* \"#utility.yul\":17170:17176   */\n      dup3\n        /* \"#utility.yul\":17163:17205   */\n      sstore\n        /* \"#utility.yul\":17244:17245   */\n      0x01\n        /* \"#utility.yul\":17236:17242   */\n      dup3\n        /* \"#utility.yul\":17232:17246   */\n      add\n        /* \"#utility.yul\":17222:17246   */\n      swap2\n      pop\n        /* \"#utility.yul\":17291:17293   */\n      0x20\n        /* \"#utility.yul\":17280:17289   */\n      dup6\n        /* \"#utility.yul\":17276:17294   */\n      add\n        /* \"#utility.yul\":17263:17294   */\n      swap5\n      pop\n        /* \"#utility.yul\":17137:17141   */\n      0x20\n        /* \"#utility.yul\":17134:17135   */\n      dup2\n        /* \"#utility.yul\":17130:17142   */\n      add\n        /* \"#utility.yul\":17125:17142   */\n      swap1\n      pop\n        /* \"#utility.yul\":17100:17308   */\n      jump(tag_346)\n    tag_348:\n        /* \"#utility.yul\":17336:17342   */\n      dup7\n        /* \"#utility.yul\":17327:17334   */\n      dup4\n        /* \"#utility.yul\":17324:17343   */\n      lt\n        /* \"#utility.yul\":17321:17500   */\n      iszero\n      tag_349\n      jumpi\n        /* \"#utility.yul\":17394:17403   */\n      dup5\n        /* \"#utility.yul\":17389:17392   */\n      dup10\n        /* \"#utility.yul\":17385:17404   */\n      add\n        /* \"#utility.yul\":17379:17405   */\n      mload\n        /* \"#utility.yul\":17437:17485   */\n      tag_350\n        /* \"#utility.yul\":17479:17483   */\n      0x1f\n        /* \"#utility.yul\":17471:17477   */\n      dup10\n        /* \"#utility.yul\":17467:17484   */\n      and\n        /* \"#utility.yul\":17456:17465   */\n      dup3\n        /* \"#utility.yul\":17437:17485   */\n      tag_156\n      jump\t// in\n    tag_350:\n        /* \"#utility.yul\":17429:17435   */\n      dup4\n        /* \"#utility.yul\":17422:17486   */\n      sstore\n        /* \"#utility.yul\":17344:17500   */\n      pop\n        /* \"#utility.yul\":17321:17500   */\n    tag_349:\n        /* \"#utility.yul\":17546:17547   */\n      0x01\n        /* \"#utility.yul\":17542:17543   */\n      0x02\n        /* \"#utility.yul\":17534:17540   */\n      dup9\n        /* \"#utility.yul\":17530:17544   */\n      mul\n        /* \"#utility.yul\":17526:17548   */\n      add\n        /* \"#utility.yul\":17520:17524   */\n      dup9\n        /* \"#utility.yul\":17513:17549   */\n      sstore\n        /* \"#utility.yul\":16949:17559   */\n      pop\n      pop\n      pop\n        /* \"#utility.yul\":16912:17798   */\n    tag_341:\n      pop\n        /* \"#utility.yul\":16504:17804   */\n      pop\n      pop\n      pop\n        /* \"#utility.yul\":16414:17804   */\n      pop\n      pop\n      jump\t// out\n\n    auxdata: 0xa2646970667358221220319b388d139bcfcf8772bd4aa5def7d2e6e4ab1d94dc8515980eede44e56b60464736f6c634300081f0033\n}\n",
				"bytecode": {
					"linkReferences": {},
					"object": "6080604052662386f26fc100006001553480156019575f5ffd5b50335f5f6101000a81548173ffffffffffffffffffffffffffffffffffffffff021916908373ffffffffffffffffffffffffffffffffffffffff160217905550611029806100665f395ff3fe608060405260043610610073575f3560e01c80635efee8f41161004d5780635efee8f4146101005780638da5cb5b1461013c578063987c389b14610166578063aa0fcc75146101a25761007a565b806324a5f15a1461007e5780632b5b25bb146100a6578063492b85cd146100d65761007a565b3661007a57005b5f5ffd5b348015610089575f5ffd5b506100a4600480360381019061009f91906106f2565b6101ca565b005b6100c060048036038101906100bb91906106f2565b610262565b6040516100cd919061078d565b60405180910390f35b3480156100e1575f5ffd5b506100ea61043d565b6040516100f791906107bc565b60405180910390f35b34801561010b575f5ffd5b50610126600480360381019061012191906106f2565b610443565b60405161013391906107ef565b60405180910390f35b348015610147575f5ffd5b50610150610460565b60405161015d9190610847565b60405180910390f35b348015610171575f5ffd5b5061018c600480360381019061018791906106f2565b610484565b60405161019991906107ef565b60405180910390f35b3480156101ad575f5ffd5b506101c860048036038101906101c3919061098c565b6104aa565b005b5f5f9054906101000a900473ffffffffffffffffffffffffffffffffffffffff1673ffffffffffffffffffffffffffffffffffffffff163373ffffffffffffffffffffffffffffffffffffffff1614610258576040517f08c379a000000000000000000000000000000000000000000000000000000000815260040161024f90610a40565b60405180910390fd5b8060018190555050565b60606001543410156102a9576040517f08c379a00000000000000000000000000000000000000000000000000000000081526004016102a090610aa8565b60405180910390fd5b60035f8381526020019081526020015f205f9054906101000a900460ff16610306576040517f08c379a00000000000000000000000000000000000000000000000000000000081526004016102fd90610b10565b60405180910390fd5b5f60025f8481526020019081526020015f20805461032390610b5b565b80601f016020809104026020016040519081016040528092919081815260200182805461034f90610b5b565b801561039a5780601f106103715761010080835404028352916020019161039a565b820191905f5260205f20905b81548152906001019060200180831161037d57829003601f168201915b5050505050905060025f8481526020019081526020015f205f6103bd9190610656565b5f60035f8581526020019081526020015f205f6101000a81548160ff0219169083151502179055503373ffffffffffffffffffffffffffffffffffffffff16837f490f8a73ed71d99716cb7c6572c8f49d4ff90b7963cca7749d76d28a74205b0e3460405161042c91906107bc565b60405180910390a380915050919050565b60015481565b6003602052805f5260405f205f915054906101000a900460ff1681565b5f5f9054906101000a900473ffffffffffffffffffffffffffffffffffffffff1681565b5f60035f8381526020019081526020015f205f9054906101000a900460ff169050919050565b5f5f9054906101000a900473ffffffffffffffffffffffffffffffffffffffff1673ffffffffffffffffffffffffffffffffffffffff163373ffffffffffffffffffffffffffffffffffffffff1614610538576040517f08c379a000000000000000000000000000000000000000000000000000000000815260040161052f90610a40565b60405180910390fd5b5f82423360405160200161054e93929190610c3b565b6040516020818303038152906040528051906020012090505f5f90505b82811015610650578181604051602001610586929190610c9c565b6040516020818303038152906040528051906020012091505f66038d7ea4c680006b033b2e3c9fccf2be43398000845f1c6105c19190610cf4565b6105cb9190610d51565b90508460025f8381526020019081526020015f2090816105eb9190610f24565b50600160035f8381526020019081526020015f205f6101000a81548160ff021916908315150217905550807f4741daafb1243a56f8dea8d1462c2aebd38dc3c3644d2fbe91cc10df7fb699bd60405160405180910390a250808060010191505061056b565b50505050565b50805461066290610b5b565b5f825580601f106106735750610690565b601f0160209004905f5260205f209081019061068f9190610693565b5b50565b5b808211156106aa575f815f905550600101610694565b5090565b5f604051905090565b5f5ffd5b5f5ffd5b5f819050919050565b6106d1816106bf565b81146106db575f5ffd5b50565b5f813590506106ec816106c8565b92915050565b5f60208284031215610707576107066106b7565b5b5f610714848285016106de565b91505092915050565b5f81519050919050565b5f82825260208201905092915050565b8281835e5f83830152505050565b5f601f19601f8301169050919050565b5f61075f8261071d565b6107698185610727565b9350610779818560208601610737565b61078281610745565b840191505092915050565b5f6020820190508181035f8301526107a58184610755565b905092915050565b6107b6816106bf565b82525050565b5f6020820190506107cf5f8301846107ad565b92915050565b5f8115159050919050565b6107e9816107d5565b82525050565b5f6020820190506108025f8301846107e0565b92915050565b5f73ffffffffffffffffffffffffffffffffffffffff82169050919050565b5f61083182610808565b9050919050565b61084181610827565b82525050565b5f60208201905061085a5f830184610838565b92915050565b5f5ffd5b5f5ffd5b7f4e487b71000000000000000000000000000000000000000000000000000000005f52604160045260245ffd5b61089e82610745565b810181811067ffffffffffffffff821117156108bd576108bc610868565b5b80604052505050565b5f6108cf6106ae565b90506108db8282610895565b919050565b5f67ffffffffffffffff8211156108fa576108f9610868565b5b61090382610745565b9050602081019050919050565b828183375f83830152505050565b5f61093061092b846108e0565b6108c6565b90508281526020810184848401111561094c5761094b610864565b5b610957848285610910565b509392505050565b5f82601f83011261097357610972610860565b5b813561098384826020860161091e565b91505092915050565b5f5f604083850312156109a2576109a16106b7565b5b5f83013567ffffffffffffffff8111156109bf576109be6106bb565b5b6109cb8582860161095f565b92505060206109dc858286016106de565b9150509250929050565b5f82825260208201905092915050565b7f556e617574686f72697a65643a2041646d696e206f6e6c7900000000000000005f82015250565b5f610a2a6018836109e6565b9150610a35826109f6565b602082019050919050565b5f6020820190508181035f830152610a5781610a1e565b9050919050565b7f5061796d656e7420746f6f206c6f7720666f72206163636573730000000000005f82015250565b5f610a92601a836109e6565b9150610a9d82610a5e565b602082019050919050565b5f6020820190508181035f830152610abf81610a86565b9050919050565b7f546f6b656e20696e76616c6964206f7220616c726561647920757365640000005f82015250565b5f610afa601d836109e6565b9150610b0582610ac6565b602082019050919050565b5f6020820190508181035f830152610b2781610aee565b9050919050565b7f4e487b71000000000000000000000000000000000000000000000000000000005f52602260045260245ffd5b5f6002820490506001821680610b7257607f821691505b602082108103610b8557610b84610b2e565b5b50919050565b5f81905092915050565b5f610b9f8261071d565b610ba98185610b8b565b9350610bb9818560208601610737565b80840191505092915050565b5f819050919050565b610bdf610bda826106bf565b610bc5565b82525050565b5f610bef82610808565b9050919050565b5f8160601b9050919050565b5f610c0c82610bf6565b9050919050565b5f610c1d82610c02565b9050919050565b610c35610c3082610be5565b610c13565b82525050565b5f610c468286610b95565b9150610c528285610bce565b602082019150610c628284610c24565b601482019150819050949350505050565b5f819050919050565b5f819050919050565b610c96610c9182610c73565b610c7c565b82525050565b5f610ca78285610c85565b602082019150610cb78284610bce565b6020820191508190509392505050565b7f4e487b71000000000000000000000000000000000000000000000000000000005f52601260045260245ffd5b5f610cfe826106bf565b9150610d09836106bf565b925082610d1957610d18610cc7565b5b828206905092915050565b7f4e487b71000000000000000000000000000000000000000000000000000000005f52601160045260245ffd5b5f610d5b826106bf565b9150610d66836106bf565b9250828201905080821115610d7e57610d7d610d24565b5b92915050565b5f819050815f5260205f209050919050565b5f6020601f8301049050919050565b5f82821b905092915050565b5f60088302610de07fffffffffffffffffffffffffffffffffffffffffffffffffffffffffffffffff82610da5565b610dea8683610da5565b95508019841693508086168417925050509392505050565b5f819050919050565b5f610e25610e20610e1b846106bf565b610e02565b6106bf565b9050919050565b5f819050919050565b610e3e83610e0b565b610e52610e4a82610e2c565b848454610db1565b825550505050565b5f5f905090565b610e69610e5a565b610e74818484610e35565b505050565b5b81811015610e9757610e8c5f82610e61565b600181019050610e7a565b5050565b601f821115610edc57610ead81610d84565b610eb684610d96565b81016020851015610ec5578190505b610ed9610ed185610d96565b830182610e79565b50505b505050565b5f82821c905092915050565b5f610efc5f1984600802610ee1565b1980831691505092915050565b5f610f148383610eed565b9150826002028217905092915050565b610f2d8261071d565b67ffffffffffffffff811115610f4657610f45610868565b5b610f508254610b5b565b610f5b828285610e9b565b5f60209050601f831160018114610f8c575f8415610f7a578287015190505b610f848582610f09565b865550610feb565b601f198416610f9a86610d84565b5f5b82811015610fc157848901518255600182019150602085019450602081019050610f9c565b86831015610fde5784890151610fda601f891682610eed565b8355505b6001600288020188555050505b50505050505056fea2646970667358221220319b388d139bcfcf8772bd4aa5def7d2e6e4ab1d94dc8515980eede44e56b60464736f6c634300081f0033",
					"opcodes": "PUSH1 0x80 PUSH1 0x40 MSTORE PUSH7 0x2386F26FC10000 PUSH1 0x1 SSTORE CALLVALUE DUP1 ISZERO PUSH1 0x19 JUMPI PUSH0 PUSH0 REVERT JUMPDEST POP CALLER PUSH0 PUSH0 PUSH2 0x100 EXP DUP2 SLOAD DUP2 PUSH20 0xFFFFFFFFFFFFFFFFFFFFFFFFFFFFFFFFFFFFFFFF MUL NOT AND SWAP1 DUP4 PUSH20 0xFFFFFFFFFFFFFFFFFFFFFFFFFFFFFFFFFFFFFFFF AND MUL OR SWAP1 SSTORE POP PUSH2 0x1029 DUP1 PUSH2 0x66 PUSH0 CODECOPY PUSH0 RETURN INVALID PUSH1 0x80 PUSH1 0x40 MSTORE PUSH1 0x4 CALLDATASIZE LT PUSH2 0x73 JUMPI PUSH0 CALLDATALOAD PUSH1 0xE0 SHR DUP1 PUSH4 0x5EFEE8F4 GT PUSH2 0x4D JUMPI DUP1 PUSH4 0x5EFEE8F4 EQ PUSH2 0x100 JUMPI DUP1 PUSH4 0x8DA5CB5B EQ PUSH2 0x13C JUMPI DUP1 PUSH4 0x987C389B EQ PUSH2 0x166 JUMPI DUP1 PUSH4 0xAA0FCC75 EQ PUSH2 0x1A2 JUMPI PUSH2 0x7A JUMP JUMPDEST DUP1 PUSH4 0x24A5F15A EQ PUSH2 0x7E JUMPI DUP1 PUSH4 0x2B5B25BB EQ PUSH2 0xA6 JUMPI DUP1 PUSH4 0x492B85CD EQ PUSH2 0xD6 JUMPI PUSH2 0x7A JUMP JUMPDEST CALLDATASIZE PUSH2 0x7A JUMPI STOP JUMPDEST PUSH0 PUSH0 REVERT JUMPDEST CALLVALUE DUP1 ISZERO PUSH2 0x89 JUMPI PUSH0 PUSH0 REVERT JUMPDEST POP PUSH2 0xA4 PUSH1 0x4 DUP1 CALLDATASIZE SUB DUP2 ADD SWAP1 PUSH2 0x9F SWAP2 SWAP1 PUSH2 0x6F2 JUMP JUMPDEST PUSH2 0x1CA JUMP JUMPDEST STOP JUMPDEST PUSH2 0xC0 PUSH1 0x4 DUP1 CALLDATASIZE SUB DUP2 ADD SWAP1 PUSH2 0xBB SWAP2 SWAP1 PUSH2 0x6F2 JUMP JUMPDEST PUSH2 0x262 JUMP JUMPDEST PUSH1 0x40 MLOAD PUSH2 0xCD SWAP2 SWAP1 PUSH2 0x78D JUMP JUMPDEST PUSH1 0x40 MLOAD DUP1 SWAP2 SUB SWAP1 RETURN JUMPDEST CALLVALUE DUP1 ISZERO PUSH2 0xE1 JUMPI PUSH0 PUSH0 REVERT JUMPDEST POP PUSH2 0xEA PUSH2 0x43D JUMP JUMPDEST PUSH1 0x40 MLOAD PUSH2 0xF7 SWAP2 SWAP1 PUSH2 0x7BC JUMP JUMPDEST PUSH1 0x40 MLOAD DUP1 SWAP2 SUB SWAP1 RETURN JUMPDEST CALLVALUE DUP1 ISZERO PUSH2 0x10B JUMPI PUSH0 PUSH0 REVERT JUMPDEST POP PUSH2 0x126 PUSH1 0x4 DUP1 CALLDATASIZE SUB DUP2 ADD SWAP1 PUSH2 0x121 SWAP2 SWAP1 PUSH2 0x6F2 JUMP JUMPDEST PUSH2 0x443 JUMP JUMPDEST PUSH1 0x40 MLOAD PUSH2 0x133 SWAP2 SWAP1 PUSH2 0x7EF JUMP JUMPDEST PUSH1 0x40 MLOAD DUP1 SWAP2 SUB SWAP1 RETURN JUMPDEST CALLVALUE DUP1 ISZERO PUSH2 0x147 JUMPI PUSH0 PUSH0 REVERT JUMPDEST POP PUSH2 0x150 PUSH2 0x460 JUMP JUMPDEST PUSH1 0x40 MLOAD PUSH2 0x15D SWAP2 SWAP1 PUSH2 0x847 JUMP JUMPDEST PUSH1 0x40 MLOAD DUP1 SWAP2 SUB SWAP1 RETURN JUMPDEST CALLVALUE DUP1 ISZERO PUSH2 0x171 JUMPI PUSH0 PUSH0 REVERT JUMPDEST POP PUSH2 0x18C PUSH1 0x4 DUP1 CALLDATASIZE SUB DUP2 ADD SWAP1 PUSH2 0x187 SWAP2 SWAP1 PUSH2 0x6F2 JUMP JUMPDEST PUSH2 0x484 JUMP JUMPDEST PUSH1 0x40 MLOAD PUSH2 0x199 SWAP2 SWAP1 PUSH2 0x7EF JUMP JUMPDEST PUSH1 0x40 MLOAD DUP1 SWAP2 SUB SWAP1 RETURN JUMPDEST CALLVALUE DUP1 ISZERO PUSH2 0x1AD JUMPI PUSH0 PUSH0 REVERT JUMPDEST POP PUSH2 0x1C8 PUSH1 0x4 DUP1 CALLDATASIZE SUB DUP2 ADD SWAP1 PUSH2 0x1C3 SWAP2 SWAP1 PUSH2 0x98C JUMP JUMPDEST PUSH2 0x4AA JUMP JUMPDEST STOP JUMPDEST PUSH0 PUSH0 SWAP1 SLOAD SWAP1 PUSH2 0x100 EXP SWAP1 DIV PUSH20 0xFFFFFFFFFFFFFFFFFFFFFFFFFFFFFFFFFFFFFFFF AND PUSH20 0xFFFFFFFFFFFFFFFFFFFFFFFFFFFFFFFFFFFFFFFF AND CALLER PUSH20 0xFFFFFFFFFFFFFFFFFFFFFFFFFFFFFFFFFFFFFFFF AND EQ PUSH2 0x258 JUMPI PUSH1 0x40 MLOAD PUSH32 0x8C379A000000000000000000000000000000000000000000000000000000000 DUP2 MSTORE PUSH1 0x4 ADD PUSH2 0x24F SWAP1 PUSH2 0xA40 JUMP JUMPDEST PUSH1 0x40 MLOAD DUP1 SWAP2 SUB SWAP1 REVERT JUMPDEST DUP1 PUSH1 0x1 DUP2 SWAP1 SSTORE POP POP JUMP JUMPDEST PUSH1 0x60 PUSH1 0x1 SLOAD CALLVALUE LT ISZERO PUSH2 0x2A9 JUMPI PUSH1 0x40 MLOAD PUSH32 0x8C379A000000000000000000000000000000000000000000000000000000000 DUP2 MSTORE PUSH1 0x4 ADD PUSH2 0x2A0 SWAP1 PUSH2 0xAA8 JUMP JUMPDEST PUSH1 0x40 MLOAD DUP1 SWAP2 SUB SWAP1 REVERT JUMPDEST PUSH1 0x3 PUSH0 DUP4 DUP2 MSTORE PUSH1 0x20 ADD SWAP1 DUP2 MSTORE PUSH1 0x20 ADD PUSH0 KECCAK256 PUSH0 SWAP1 SLOAD SWAP1 PUSH2 0x100 EXP SWAP1 DIV PUSH1 0xFF AND PUSH2 0x306 JUMPI PUSH1 0x40 MLOAD PUSH32 0x8C379A000000000000000000000000000000000000000000000000000000000 DUP2 MSTORE PUSH1 0x4 ADD PUSH2 0x2FD SWAP1 PUSH2 0xB10 JUMP JUMPDEST PUSH1 0x40 MLOAD DUP1 SWAP2 SUB SWAP1 REVERT JUMPDEST PUSH0 PUSH1 0x2 PUSH0 DUP5 DUP2 MSTORE PUSH1 0x20 ADD SWAP1 DUP2 MSTORE PUSH1 0x20 ADD PUSH0 KECCAK256 DUP1 SLOAD PUSH2 0x323 SWAP1 PUSH2 0xB5B JUMP JUMPDEST DUP1 PUSH1 0x1F ADD PUSH1 0x20 DUP1 SWAP2 DIV MUL PUSH1 0x20 ADD PUSH1 0x40 MLOAD SWAP1 DUP2 ADD PUSH1 0x40 MSTORE DUP1 SWAP3 SWAP2 SWAP1 DUP2 DUP2 MSTORE PUSH1 0x20 ADD DUP3 DUP1 SLOAD PUSH2 0x34F SWAP1 PUSH2 0xB5B JUMP JUMPDEST DUP1 ISZERO PUSH2 0x39A JUMPI DUP1 PUSH1 0x1F LT PUSH2 0x371 JUMPI PUSH2 0x100 DUP1 DUP4 SLOAD DIV MUL DUP4 MSTORE SWAP2 PUSH1 0x20 ADD SWAP2 PUSH2 0x39A JUMP JUMPDEST DUP3 ADD SWAP2 SWAP1 PUSH0 MSTORE PUSH1 0x20 PUSH0 KECCAK256 SWAP1 JUMPDEST DUP2 SLOAD DUP2 MSTORE SWAP1 PUSH1 0x1 ADD SWAP1 PUSH1 0x20 ADD DUP1 DUP4 GT PUSH2 0x37D JUMPI DUP3 SWAP1 SUB PUSH1 0x1F AND DUP3 ADD SWAP2 JUMPDEST POP POP POP POP POP SWAP1 POP PUSH1 0x2 PUSH0 DUP5 DUP2 MSTORE PUSH1 0x20 ADD SWAP1 DUP2 MSTORE PUSH1 0x20 ADD PUSH0 KECCAK256 PUSH0 PUSH2 0x3BD SWAP2 SWAP1 PUSH2 0x656 JUMP JUMPDEST PUSH0 PUSH1 0x3 PUSH0 DUP6 DUP2 MSTORE PUSH1 0x20 ADD SWAP1 DUP2 MSTORE PUSH1 0x20 ADD PUSH0 KECCAK256 PUSH0 PUSH2 0x100 EXP DUP2 SLOAD DUP2 PUSH1 0xFF MUL NOT AND SWAP1 DUP4 ISZERO ISZERO MUL OR SWAP1 SSTORE POP CALLER PUSH20 0xFFFFFFFFFFFFFFFFFFFFFFFFFFFFFFFFFFFFFFFF AND DUP4 PUSH32 0x490F8A73ED71D99716CB7C6572C8F49D4FF90B7963CCA7749D76D28A74205B0E CALLVALUE PUSH1 0x40 MLOAD PUSH2 0x42C SWAP2 SWAP1 PUSH2 0x7BC JUMP JUMPDEST PUSH1 0x40 MLOAD DUP1 SWAP2 SUB SWAP1 LOG3 DUP1 SWAP2 POP POP SWAP2 SWAP1 POP JUMP JUMPDEST PUSH1 0x1 SLOAD DUP2 JUMP JUMPDEST PUSH1 0x3 PUSH1 0x20 MSTORE DUP1 PUSH0 MSTORE PUSH1 0x40 PUSH0 KECCAK256 PUSH0 SWAP2 POP SLOAD SWAP1 PUSH2 0x100 EXP SWAP1 DIV PUSH1 0xFF AND DUP2 JUMP JUMPDEST PUSH0 PUSH0 SWAP1 SLOAD SWAP1 PUSH2 0x100 EXP SWAP1 DIV PUSH20 0xFFFFFFFFFFFFFFFFFFFFFFFFFFFFFFFFFFFFFFFF AND DUP2 JUMP JUMPDEST PUSH0 PUSH1 0x3 PUSH0 DUP4 DUP2 MSTORE PUSH1 0x20 ADD SWAP1 DUP2 MSTORE PUSH1 0x20 ADD PUSH0 KECCAK256 PUSH0 SWAP1 SLOAD SWAP1 PUSH2 0x100 EXP SWAP1 DIV PUSH1 0xFF AND SWAP1 POP SWAP2 SWAP1 POP JUMP JUMPDEST PUSH0 PUSH0 SWAP1 SLOAD SWAP1 PUSH2 0x100 EXP SWAP1 DIV PUSH20 0xFFFFFFFFFFFFFFFFFFFFFFFFFFFFFFFFFFFFFFFF AND PUSH20 0xFFFFFFFFFFFFFFFFFFFFFFFFFFFFFFFFFFFFFFFF AND CALLER PUSH20 0xFFFFFFFFFFFFFFFFFFFFFFFFFFFFFFFFFFFFFFFF AND EQ PUSH2 0x538 JUMPI PUSH1 0x40 MLOAD PUSH32 0x8C379A000000000000000000000000000000000000000000000000000000000 DUP2 MSTORE PUSH1 0x4 ADD PUSH2 0x52F SWAP1 PUSH2 0xA40 JUMP JUMPDEST PUSH1 0x40 MLOAD DUP1 SWAP2 SUB SWAP1 REVERT JUMPDEST PUSH0 DUP3 TIMESTAMP CALLER PUSH1 0x40 MLOAD PUSH1 0x20 ADD PUSH2 0x54E SWAP4 SWAP3 SWAP2 SWAP1 PUSH2 0xC3B JUMP JUMPDEST PUSH1 0x40 MLOAD PUSH1 0x20 DUP2 DUP4 SUB SUB DUP2 MSTORE SWAP1 PUSH1 0x40 MSTORE DUP1 MLOAD SWAP1 PUSH1 0x20 ADD KECCAK256 SWAP1 POP PUSH0 PUSH0 SWAP1 POP JUMPDEST DUP3 DUP2 LT ISZERO PUSH2 0x650 JUMPI DUP2 DUP2 PUSH1 0x40 MLOAD PUSH1 0x20 ADD PUSH2 0x586 SWAP3 SWAP2 SWAP1 PUSH2 0xC9C JUMP JUMPDEST PUSH1 0x40 MLOAD PUSH1 0x20 DUP2 DUP4 SUB SUB DUP2 MSTORE SWAP1 PUSH1 0x40 MSTORE DUP1 MLOAD SWAP1 PUSH1 0x20 ADD KECCAK256 SWAP2 POP PUSH0 PUSH7 0x38D7EA4C68000 PUSH12 0x33B2E3C9FCCF2BE43398000 DUP5 PUSH0 SHR PUSH2 0x5C1 SWAP2 SWAP1 PUSH2 0xCF4 JUMP JUMPDEST PUSH2 0x5CB SWAP2 SWAP1 PUSH2 0xD51 JUMP JUMPDEST SWAP1 POP DUP5 PUSH1 0x2 PUSH0 DUP4 DUP2 MSTORE PUSH1 0x20 ADD SWAP1 DUP2 MSTORE PUSH1 0x20 ADD PUSH0 KECCAK256 SWAP1 DUP2 PUSH2 0x5EB SWAP2 SWAP1 PUSH2 0xF24 JUMP JUMPDEST POP PUSH1 0x1 PUSH1 0x3 PUSH0 DUP4 DUP2 MSTORE PUSH1 0x20 ADD SWAP1 DUP2 MSTORE PUSH1 0x20 ADD PUSH0 KECCAK256 PUSH0 PUSH2 0x100 EXP DUP2 SLOAD DUP2 PUSH1 0xFF MUL NOT AND SWAP1 DUP4 ISZERO ISZERO MUL OR SWAP1 SSTORE POP DUP1 PUSH32 0x4741DAAFB1243A56F8DEA8D1462C2AEBD38DC3C3644D2FBE91CC10DF7FB699BD PUSH1 0x40 MLOAD PUSH1 0x40 MLOAD DUP1 SWAP2 SUB SWAP1 LOG2 POP DUP1 DUP1 PUSH1 0x1 ADD SWAP2 POP POP PUSH2 0x56B JUMP JUMPDEST POP POP POP POP JUMP JUMPDEST POP DUP1 SLOAD PUSH2 0x662 SWAP1 PUSH2 0xB5B JUMP JUMPDEST PUSH0 DUP3 SSTORE DUP1 PUSH1 0x1F LT PUSH2 0x673 JUMPI POP PUSH2 0x690 JUMP JUMPDEST PUSH1 0x1F ADD PUSH1 0x20 SWAP1 DIV SWAP1 PUSH0 MSTORE PUSH1 0x20 PUSH0 KECCAK256 SWAP1 DUP2 ADD SWAP1 PUSH2 0x68F SWAP2 SWAP1 PUSH2 0x693 JUMP JUMPDEST JUMPDEST POP JUMP JUMPDEST JUMPDEST DUP1 DUP3 GT ISZERO PUSH2 0x6AA JUMPI PUSH0 DUP2 PUSH0 SWAP1 SSTORE POP PUSH1 0x1 ADD PUSH2 0x694 JUMP JUMPDEST POP SWAP1 JUMP JUMPDEST PUSH0 PUSH1 0x40 MLOAD SWAP1 POP SWAP1 JUMP JUMPDEST PUSH0 PUSH0 REVERT JUMPDEST PUSH0 PUSH0 REVERT JUMPDEST PUSH0 DUP2 SWAP1 POP SWAP2 SWAP1 POP JUMP JUMPDEST PUSH2 0x6D1 DUP2 PUSH2 0x6BF JUMP JUMPDEST DUP2 EQ PUSH2 0x6DB JUMPI PUSH0 PUSH0 REVERT JUMPDEST POP JUMP JUMPDEST PUSH0 DUP2 CALLDATALOAD SWAP1 POP PUSH2 0x6EC DUP2 PUSH2 0x6C8 JUMP JUMPDEST SWAP3 SWAP2 POP POP JUMP JUMPDEST PUSH0 PUSH1 0x20 DUP3 DUP5 SUB SLT ISZERO PUSH2 0x707 JUMPI PUSH2 0x706 PUSH2 0x6B7 JUMP JUMPDEST JUMPDEST PUSH0 PUSH2 0x714 DUP5 DUP3 DUP6 ADD PUSH2 0x6DE JUMP JUMPDEST SWAP2 POP POP SWAP3 SWAP2 POP POP JUMP JUMPDEST PUSH0 DUP2 MLOAD SWAP1 POP SWAP2 SWAP1 POP JUMP JUMPDEST PUSH0 DUP3 DUP3 MSTORE PUSH1 0x20 DUP3 ADD SWAP1 POP SWAP3 SWAP2 POP POP JUMP JUMPDEST DUP3 DUP2 DUP4 MCOPY PUSH0 DUP4 DUP4 ADD MSTORE POP POP POP JUMP JUMPDEST PUSH0 PUSH1 0x1F NOT PUSH1 0x1F DUP4 ADD AND SWAP1 POP SWAP2 SWAP1 POP JUMP JUMPDEST PUSH0 PUSH2 0x75F DUP3 PUSH2 0x71D JUMP JUMPDEST PUSH2 0x769 DUP2 DUP6 PUSH2 0x727 JUMP JUMPDEST SWAP4 POP PUSH2 0x779 DUP2 DUP6 PUSH1 0x20 DUP7 ADD PUSH2 0x737 JUMP JUMPDEST PUSH2 0x782 DUP2 PUSH2 0x745 JUMP JUMPDEST DUP5 ADD SWAP2 POP POP SWAP3 SWAP2 POP POP JUMP JUMPDEST PUSH0 PUSH1 0x20 DUP3 ADD SWAP1 POP DUP2 DUP2 SUB PUSH0 DUP4 ADD MSTORE PUSH2 0x7A5 DUP2 DUP5 PUSH2 0x755 JUMP JUMPDEST SWAP1 POP SWAP3 SWAP2 POP POP JUMP JUMPDEST PUSH2 0x7B6 DUP2 PUSH2 0x6BF JUMP JUMPDEST DUP3 MSTORE POP POP JUMP JUMPDEST PUSH0 PUSH1 0x20 DUP3 ADD SWAP1 POP PUSH2 0x7CF PUSH0 DUP4 ADD DUP5 PUSH2 0x7AD JUMP JUMPDEST SWAP3 SWAP2 POP POP JUMP JUMPDEST PUSH0 DUP2 ISZERO ISZERO SWAP1 POP SWAP2 SWAP1 POP JUMP JUMPDEST PUSH2 0x7E9 DUP2 PUSH2 0x7D5 JUMP JUMPDEST DUP3 MSTORE POP POP JUMP JUMPDEST PUSH0 PUSH1 0x20 DUP3 ADD SWAP1 POP PUSH2 0x802 PUSH0 DUP4 ADD DUP5 PUSH2 0x7E0 JUMP JUMPDEST SWAP3 SWAP2 POP POP JUMP JUMPDEST PUSH0 PUSH20 0xFFFFFFFFFFFFFFFFFFFFFFFFFFFFFFFFFFFFFFFF DUP3 AND SWAP1 POP SWAP2 SWAP1 POP JUMP JUMPDEST PUSH0 PUSH2 0x831 DUP3 PUSH2 0x808 JUMP JUMPDEST SWAP1 POP SWAP2 SWAP1 POP JUMP JUMPDEST PUSH2 0x841 DUP2 PUSH2 0x827 JUMP JUMPDEST DUP3 MSTORE POP POP JUMP JUMPDEST PUSH0 PUSH1 0x20 DUP3 ADD SWAP1 POP PUSH2 0x85A PUSH0 DUP4 ADD DUP5 PUSH2 0x838 JUMP JUMPDEST SWAP3 SWAP2 POP POP JUMP JUMPDEST PUSH0 PUSH0 REVERT JUMPDEST PUSH0 PUSH0 REVERT JUMPDEST PUSH32 0x4E487B7100000000000000000000000000000000000000000000000000000000 PUSH0 MSTORE PUSH1 0x41 PUSH1 0x4 MSTORE PUSH1 0x24 PUSH0 REVERT JUMPDEST PUSH2 0x89E DUP3 PUSH2 0x745 JUMP JUMPDEST DUP2 ADD DUP2 DUP2 LT PUSH8 0xFFFFFFFFFFFFFFFF DUP3 GT OR ISZERO PUSH2 0x8BD JUMPI PUSH2 0x8BC PUSH2 0x868 JUMP JUMPDEST JUMPDEST DUP1 PUSH1 0x40 MSTORE POP POP POP JUMP JUMPDEST PUSH0 PUSH2 0x8CF PUSH2 0x6AE JUMP JUMPDEST SWAP1 POP PUSH2 0x8DB DUP3 DUP3 PUSH2 0x895 JUMP JUMPDEST SWAP2 SWAP1 POP JUMP JUMPDEST PUSH0 PUSH8 0xFFFFFFFFFFFFFFFF DUP3 GT ISZERO PUSH2 0x8FA JUMPI PUSH2 0x8F9 PUSH2 0x868 JUMP JUMPDEST JUMPDEST PUSH2 0x903 DUP3 PUSH2 0x745 JUMP JUMPDEST SWAP1 POP PUSH1 0x20 DUP2 ADD SWAP1 POP SWAP2 SWAP1 POP JUMP JUMPDEST DUP3 DUP2 DUP4 CALLDATACOPY PUSH0 DUP4 DUP4 ADD MSTORE POP POP POP JUMP JUMPDEST PUSH0 PUSH2 0x930 PUSH2 0x92B DUP5 PUSH2 0x8E0 JUMP JUMPDEST PUSH2 0x8C6 JUMP JUMPDEST SWAP1 POP DUP3 DUP2 MSTORE PUSH1 0x20 DUP2 ADD DUP5 DUP5 DUP5 ADD GT ISZERO PUSH2 0x94C JUMPI PUSH2 0x94B PUSH2 0x864 JUMP JUMPDEST JUMPDEST PUSH2 0x957 DUP5 DUP3 DUP6 PUSH2 0x910 JUMP JUMPDEST POP SWAP4 SWAP3 POP POP POP JUMP JUMPDEST PUSH0 DUP3 PUSH1 0x1F DUP4 ADD SLT PUSH2 0x973 JUMPI PUSH2 0x972 PUSH2 0x860 JUMP JUMPDEST JUMPDEST DUP2 CALLDATALOAD PUSH2 0x983 DUP5 DUP3 PUSH1 0x20 DUP7 ADD PUSH2 0x91E JUMP JUMPDEST SWAP2 POP POP SWAP3 SWAP2 POP POP JUMP JUMPDEST PUSH0 PUSH0 PUSH1 0x40 DUP4 DUP6 SUB SLT ISZERO PUSH2 0x9A2 JUMPI PUSH2 0x9A1 PUSH2 0x6B7 JUMP JUMPDEST JUMPDEST PUSH0 DUP4 ADD CALLDATALOAD PUSH8 0xFFFFFFFFFFFFFFFF DUP2 GT ISZERO PUSH2 0x9BF JUMPI PUSH2 0x9BE PUSH2 0x6BB JUMP JUMPDEST JUMPDEST PUSH2 0x9CB DUP6 DUP3 DUP7 ADD PUSH2 0x95F JUMP JUMPDEST SWAP3 POP POP PUSH1 0x20 PUSH2 0x9DC DUP6 DUP3 DUP7 ADD PUSH2 0x6DE JUMP JUMPDEST SWAP2 POP POP SWAP3 POP SWAP3 SWAP1 POP JUMP JUMPDEST PUSH0 DUP3 DUP3 MSTORE PUSH1 0x20 DUP3 ADD SWAP1 POP SWAP3 SWAP2 POP POP JUMP JUMPDEST PUSH32 0x556E617574686F72697A65643A2041646D696E206F6E6C790000000000000000 PUSH0 DUP3 ADD MSTORE POP JUMP JUMPDEST PUSH0 PUSH2 0xA2A PUSH1 0x18 DUP4 PUSH2 0x9E6 JUMP JUMPDEST SWAP2 POP PUSH2 0xA35 DUP3 PUSH2 0x9F6 JUMP JUMPDEST PUSH1 0x20 DUP3 ADD SWAP1 POP SWAP2 SWAP1 POP JUMP JUMPDEST PUSH0 PUSH1 0x20 DUP3 ADD SWAP1 POP DUP2 DUP2 SUB PUSH0 DUP4 ADD MSTORE PUSH2 0xA57 DUP2 PUSH2 0xA1E JUMP JUMPDEST SWAP1 POP SWAP2 SWAP1 POP JUMP JUMPDEST PUSH32 0x5061796D656E7420746F6F206C6F7720666F7220616363657373000000000000 PUSH0 DUP3 ADD MSTORE POP JUMP JUMPDEST PUSH0 PUSH2 0xA92 PUSH1 0x1A DUP4 PUSH2 0x9E6 JUMP JUMPDEST SWAP2 POP PUSH2 0xA9D DUP3 PUSH2 0xA5E JUMP JUMPDEST PUSH1 0x20 DUP3 ADD SWAP1 POP SWAP2 SWAP1 POP JUMP JUMPDEST PUSH0 PUSH1 0x20 DUP3 ADD SWAP1 POP DUP2 DUP2 SUB PUSH0 DUP4 ADD MSTORE PUSH2 0xABF DUP2 PUSH2 0xA86 JUMP JUMPDEST SWAP1 POP SWAP2 SWAP1 POP JUMP JUMPDEST PUSH32 0x546F6B656E20696E76616C6964206F7220616C72656164792075736564000000 PUSH0 DUP3 ADD MSTORE POP JUMP JUMPDEST PUSH0 PUSH2 0xAFA PUSH1 0x1D DUP4 PUSH2 0x9E6 JUMP JUMPDEST SWAP2 POP PUSH2 0xB05 DUP3 PUSH2 0xAC6 JUMP JUMPDEST PUSH1 0x20 DUP3 ADD SWAP1 POP SWAP2 SWAP1 POP JUMP JUMPDEST PUSH0 PUSH1 0x20 DUP3 ADD SWAP1 POP DUP2 DUP2 SUB PUSH0 DUP4 ADD MSTORE PUSH2 0xB27 DUP2 PUSH2 0xAEE JUMP JUMPDEST SWAP1 POP SWAP2 SWAP1 POP JUMP JUMPDEST PUSH32 0x4E487B7100000000000000000000000000000000000000000000000000000000 PUSH0 MSTORE PUSH1 0x22 PUSH1 0x4 MSTORE PUSH1 0x24 PUSH0 REVERT JUMPDEST PUSH0 PUSH1 0x2 DUP3 DIV SWAP1 POP PUSH1 0x1 DUP3 AND DUP1 PUSH2 0xB72 JUMPI PUSH1 0x7F DUP3 AND SWAP2 POP JUMPDEST PUSH1 0x20 DUP3 LT DUP2 SUB PUSH2 0xB85 JUMPI PUSH2 0xB84 PUSH2 0xB2E JUMP JUMPDEST JUMPDEST POP SWAP2 SWAP1 POP JUMP JUMPDEST PUSH0 DUP2 SWAP1 POP SWAP3 SWAP2 POP POP JUMP JUMPDEST PUSH0 PUSH2 0xB9F DUP3 PUSH2 0x71D JUMP JUMPDEST PUSH2 0xBA9 DUP2 DUP6 PUSH2 0xB8B JUMP JUMPDEST SWAP4 POP PUSH2 0xBB9 DUP2 DUP6 PUSH1 0x20 DUP7 ADD PUSH2 0x737 JUMP JUMPDEST DUP1 DUP5 ADD SWAP2 POP POP SWAP3 SWAP2 POP POP JUMP JUMPDEST PUSH0 DUP2 SWAP1 POP SWAP2 SWAP1 POP JUMP JUMPDEST PUSH2 0xBDF PUSH2 0xBDA DUP3 PUSH2 0x6BF JUMP JUMPDEST PUSH2 0xBC5 JUMP JUMPDEST DUP3 MSTORE POP POP JUMP JUMPDEST PUSH0 PUSH2 0xBEF DUP3 PUSH2 0x808 JUMP JUMPDEST SWAP1 POP SWAP2 SWAP1 POP JUMP JUMPDEST PUSH0 DUP2 PUSH1 0x60 SHL SWAP1 POP SWAP2 SWAP1 POP JUMP JUMPDEST PUSH0 PUSH2 0xC0C DUP3 PUSH2 0xBF6 JUMP JUMPDEST SWAP1 POP SWAP2 SWAP1 POP JUMP JUMPDEST PUSH0 PUSH2 0xC1D DUP3 PUSH2 0xC02 JUMP JUMPDEST SWAP1 POP SWAP2 SWAP1 POP JUMP JUMPDEST PUSH2 0xC35 PUSH2 0xC30 DUP3 PUSH2 0xBE5 JUMP JUMPDEST PUSH2 0xC13 JUMP JUMPDEST DUP3 MSTORE POP POP JUMP JUMPDEST PUSH0 PUSH2 0xC46 DUP3 DUP7 PUSH2 0xB95 JUMP JUMPDEST SWAP2 POP PUSH2 0xC52 DUP3 DUP6 PUSH2 0xBCE JUMP JUMPDEST PUSH1 0x20 DUP3 ADD SWAP2 POP PUSH2 0xC62 DUP3 DUP5 PUSH2 0xC24 JUMP JUMPDEST PUSH1 0x14 DUP3 ADD SWAP2 POP DUP2 SWAP1 POP SWAP5 SWAP4 POP POP POP POP JUMP JUMPDEST PUSH0 DUP2 SWAP1 POP SWAP2 SWAP1 POP JUMP JUMPDEST PUSH0 DUP2 SWAP1 POP SWAP2 SWAP1 POP JUMP JUMPDEST PUSH2 0xC96 PUSH2 0xC91 DUP3 PUSH2 0xC73 JUMP JUMPDEST PUSH2 0xC7C JUMP JUMPDEST DUP3 MSTORE POP POP JUMP JUMPDEST PUSH0 PUSH2 0xCA7 DUP3 DUP6 PUSH2 0xC85 JUMP JUMPDEST PUSH1 0x20 DUP3 ADD SWAP2 POP PUSH2 0xCB7 DUP3 DUP5 PUSH2 0xBCE JUMP JUMPDEST PUSH1 0x20 DUP3 ADD SWAP2 POP DUP2 SWAP1 POP SWAP4 SWAP3 POP POP POP JUMP JUMPDEST PUSH32 0x4E487B7100000000000000000000000000000000000000000000000000000000 PUSH0 MSTORE PUSH1 0x12 PUSH1 0x4 MSTORE PUSH1 0x24 PUSH0 REVERT JUMPDEST PUSH0 PUSH2 0xCFE DUP3 PUSH2 0x6BF JUMP JUMPDEST SWAP2 POP PUSH2 0xD09 DUP4 PUSH2 0x6BF JUMP JUMPDEST SWAP3 POP DUP3 PUSH2 0xD19 JUMPI PUSH2 0xD18 PUSH2 0xCC7 JUMP JUMPDEST JUMPDEST DUP3 DUP3 MOD SWAP1 POP SWAP3 SWAP2 POP POP JUMP JUMPDEST PUSH32 0x4E487B7100000000000000000000000000000000000000000000000000000000 PUSH0 MSTORE PUSH1 0x11 PUSH1 0x4 MSTORE PUSH1 0x24 PUSH0 REVERT JUMPDEST PUSH0 PUSH2 0xD5B DUP3 PUSH2 0x6BF JUMP JUMPDEST SWAP2 POP PUSH2 0xD66 DUP4 PUSH2 0x6BF JUMP JUMPDEST SWAP3 POP DUP3 DUP3 ADD SWAP1 POP DUP1 DUP3 GT ISZERO PUSH2 0xD7E JUMPI PUSH2 0xD7D PUSH2 0xD24 JUMP JUMPDEST JUMPDEST SWAP3 SWAP2 POP POP JUMP JUMPDEST PUSH0 DUP2 SWAP1 POP DUP2 PUSH0 MSTORE PUSH1 0x20 PUSH0 KECCAK256 SWAP1 POP SWAP2 SWAP1 POP JUMP JUMPDEST PUSH0 PUSH1 0x20 PUSH1 0x1F DUP4 ADD DIV SWAP1 POP SWAP2 SWAP1 POP JUMP JUMPDEST PUSH0 DUP3 DUP3 SHL SWAP1 POP SWAP3 SWAP2 POP POP JUMP JUMPDEST PUSH0 PUSH1 0x8 DUP4 MUL PUSH2 0xDE0 PUSH32 0xFFFFFFFFFFFFFFFFFFFFFFFFFFFFFFFFFFFFFFFFFFFFFFFFFFFFFFFFFFFFFFFF DUP3 PUSH2 0xDA5 JUMP JUMPDEST PUSH2 0xDEA DUP7 DUP4 PUSH2 0xDA5 JUMP JUMPDEST SWAP6 POP DUP1 NOT DUP5 AND SWAP4 POP DUP1 DUP7 AND DUP5 OR SWAP3 POP POP POP SWAP4 SWAP3 POP POP POP JUMP JUMPDEST PUSH0 DUP2 SWAP1 POP SWAP2 SWAP1 POP JUMP JUMPDEST PUSH0 PUSH2 0xE25 PUSH2 0xE20 PUSH2 0xE1B DUP5 PUSH2 0x6BF JUMP JUMPDEST PUSH2 0xE02 JUMP JUMPDEST PUSH2 0x6BF JUMP JUMPDEST SWAP1 POP SWAP2 SWAP1 POP JUMP JUMPDEST PUSH0 DUP2 SWAP1 POP SWAP2 SWAP1 POP JUMP JUMPDEST PUSH2 0xE3E DUP4 PUSH2 0xE0B JUMP JUMPDEST PUSH2 0xE52 PUSH2 0xE4A DUP3 PUSH2 0xE2C JUMP JUMPDEST DUP5 DUP5 SLOAD PUSH2 0xDB1 JUMP JUMPDEST DUP3 SSTORE POP POP POP POP JUMP JUMPDEST PUSH0 PUSH0 SWAP1 POP SWAP1 JUMP JUMPDEST PUSH2 0xE69 PUSH2 0xE5A JUMP JUMPDEST PUSH2 0xE74 DUP2 DUP5 DUP5 PUSH2 0xE35 JUMP JUMPDEST POP POP POP JUMP JUMPDEST JUMPDEST DUP2 DUP2 LT ISZERO PUSH2 0xE97 JUMPI PUSH2 0xE8C PUSH0 DUP3 PUSH2 0xE61 JUMP JUMPDEST PUSH1 0x1 DUP2 ADD SWAP1 POP PUSH2 0xE7A JUMP JUMPDEST POP POP JUMP JUMPDEST PUSH1 0x1F DUP3 GT ISZERO PUSH2 0xEDC JUMPI PUSH2 0xEAD DUP2 PUSH2 0xD84 JUMP JUMPDEST PUSH2 0xEB6 DUP5 PUSH2 0xD96 JUMP JUMPDEST DUP2 ADD PUSH1 0x20 DUP6 LT ISZERO PUSH2 0xEC5 JUMPI DUP2 SWAP1 POP JUMPDEST PUSH2 0xED9 PUSH2 0xED1 DUP6 PUSH2 0xD96 JUMP JUMPDEST DUP4 ADD DUP3 PUSH2 0xE79 JUMP JUMPDEST POP POP JUMPDEST POP POP POP JUMP JUMPDEST PUSH0 DUP3 DUP3 SHR SWAP1 POP SWAP3 SWAP2 POP POP JUMP JUMPDEST PUSH0 PUSH2 0xEFC PUSH0 NOT DUP5 PUSH1 0x8 MUL PUSH2 0xEE1 JUMP JUMPDEST NOT DUP1 DUP4 AND SWAP2 POP POP SWAP3 SWAP2 POP POP JUMP JUMPDEST PUSH0 PUSH2 0xF14 DUP4 DUP4 PUSH2 0xEED JUMP JUMPDEST SWAP2 POP DUP3 PUSH1 0x2 MUL DUP3 OR SWAP1 POP SWAP3 SWAP2 POP POP JUMP JUMPDEST PUSH2 0xF2D DUP3 PUSH2 0x71D JUMP JUMPDEST PUSH8 0xFFFFFFFFFFFFFFFF DUP2 GT ISZERO PUSH2 0xF46 JUMPI PUSH2 0xF45 PUSH2 0x868 JUMP JUMPDEST JUMPDEST PUSH2 0xF50 DUP3 SLOAD PUSH2 0xB5B JUMP JUMPDEST PUSH2 0xF5B DUP3 DUP3 DUP6 PUSH2 0xE9B JUMP JUMPDEST PUSH0 PUSH1 0x20 SWAP1 POP PUSH1 0x1F DUP4 GT PUSH1 0x1 DUP2 EQ PUSH2 0xF8C JUMPI PUSH0 DUP5 ISZERO PUSH2 0xF7A JUMPI DUP3 DUP8 ADD MLOAD SWAP1 POP JUMPDEST PUSH2 0xF84 DUP6 DUP3 PUSH2 0xF09 JUMP JUMPDEST DUP7 SSTORE POP PUSH2 0xFEB JUMP JUMPDEST PUSH1 0x1F NOT DUP5 AND PUSH2 0xF9A DUP7 PUSH2 0xD84 JUMP JUMPDEST PUSH0 JUMPDEST DUP3 DUP2 LT ISZERO PUSH2 0xFC1 JUMPI DUP5 DUP10 ADD MLOAD DUP3 SSTORE PUSH1 0x1 DUP3 ADD SWAP2 POP PUSH1 0x20 DUP6 ADD SWAP5 POP PUSH1 0x20 DUP2 ADD SWAP1 POP PUSH2 0xF9C JUMP JUMPDEST DUP7 DUP4 LT ISZERO PUSH2 0xFDE JUMPI DUP5 DUP10 ADD MLOAD PUSH2 0xFDA PUSH1 0x1F DUP10 AND DUP3 PUSH2 0xEED JUMP JUMPDEST DUP4 SSTORE POP JUMPDEST PUSH1 0x1 PUSH1 0x2 DUP9 MUL ADD DUP9 SSTORE POP POP POP JUMPDEST POP POP POP POP POP POP JUMP INVALID LOG2 PUSH5 0x6970667358 0x22 SLT KECCAK256 BALANCE SWAP12 CODESIZE DUP14 SGT SWAP12 0xCF 0xCF DUP8 PUSH19 0xBD4AA5DEF7D2E6E4AB1D94DC8515980EEDE44E JUMP 0xB6 DIV PUSH5 0x736F6C6343 STOP ADDMOD 0x1F STOP CALLER "
				},
				"gasEstimates": {
					"creation": {
						"codeDepositCost": "827400",
						"executionCost": "47232",
						"totalCost": "874632"
					},
					"external": {
						"accessFee()": "2470",
						"businessRecall(uint256)": "infinite",
						"checkTokenStatus(uint256)": "2854",
						"generateAndStore(bytes,uint256)": "infinite",
						"isCodeActive(uint256)": "2785",
						"owner()": "2529",
						"setAccessFee(uint256)": "24684"
					}
				},
				"methodIdentifiers": {
					"accessFee()": "492b85cd",
					"businessRecall(uint256)": "2b5b25bb",
					"checkTokenStatus(uint256)": "987c389b",
					"generateAndStore(bytes,uint256)": "aa0fcc75",
					"isCodeActive(uint256)": "5efee8f4",
					"owner()": "8da5cb5b",
					"setAccessFee(uint256)": "24a5f15a"
				}
			},
			"storageLayout": {
				"storage": [
					{
						"astId": 4,
						"contract": "contracts/DisposableIdentityVault.sol:DisposableIdentityVault",
						"label": "owner",
						"offset": 0,
						"slot": "0",
						"type": "t_address_payable"
					},
					{
						"astId": 7,
						"contract": "contracts/DisposableIdentityVault.sol:DisposableIdentityVault",
						"label": "accessFee",
						"offset": 0,
						"slot": "1",
						"type": "t_uint256"
					},
					{
						"astId": 11,
						"contract": "contracts/DisposableIdentityVault.sol:DisposableIdentityVault",
						"label": "encryptedVault",
						"offset": 0,
						"slot": "2",
						"type": "t_mapping(t_uint256,t_bytes_storage)"
					},
					{
						"astId": 15,
						"contract": "contracts/DisposableIdentityVault.sol:DisposableIdentityVault",
						"label": "isCodeActive",
						"offset": 0,
						"slot": "3",
						"type": "t_mapping(t_uint256,t_bool)"
					}
				],
				"types": {
					"t_address_payable": {
						"encoding": "inplace",
						"label": "address payable",
						"numberOfBytes": "20"
					},
					"t_bool": {
						"encoding": "inplace",
						"label": "bool",
						"numberOfBytes": "1"
					},
					"t_bytes_storage": {
						"encoding": "bytes",
						"label": "bytes",
						"numberOfBytes": "32"
					},
					"t_mapping(t_uint256,t_bool)": {
						"encoding": "mapping",
						"key": "t_uint256",
						"label": "mapping(uint256 => bool)",
						"numberOfBytes": "32",
						"value": "t_bool"
					},
					"t_mapping(t_uint256,t_bytes_storage)": {
						"encoding": "mapping",
						"key": "t_uint256",
						"label": "mapping(uint256 => bytes)",
						"numberOfBytes": "32",
						"value": "t_bytes_storage"
					},
					"t_uint256": {
						"encoding": "inplace",
						"label": "uint256",
						"numberOfBytes": "32"
					}
				}
			},
			"userdoc": {
				"kind": "user",
				"methods": {},
				"version": 1
			}
		}
	}
}